:100000000C94D5000C94FD000C94FD000C94FD00A4
:100010000C94FD000C94FD000C94FD000C94FD006C
:100020000C94FD000C94FD000C9446070C94B5074D
:100030000C94FD000C94FD000C94FD000C94FD004C
:100040000C94FD000C94FD000C94FD000C94FD003C
:100050000C94FD000C94FD000C94FD000C94FC0627
:100060000C94FD000C94FD000C94FD000C94FD001C
:100070000C94FD000C94FD000C94FD000C94FD000C
:100080000C94FD000C94FD000C94FD000C94FD00FC
:100090000C94FD000C94FD000C94FD000C94FD00EC
:1000A0000C94FD000C94FD000C94FD00080B000264
:1000B0000202000009040000010202000005240001
:1000C0001001052401010104240206052406000193
:1000D0000705810310004009040100020A00000026
:1000E00007050202400000070583024000000403E8
:1000F000090412010002EF02014041233680000191
:100100000102030141726475696E6F204C4C43001B
:1001100041726475696E6F204C656F6E6172646FB9
:100120000000000000240027002A002D00300000FD
:10013000000000250028002B002E003100000000E8
:10014000002300260029002C002F000404040404CE
:10015000030405020202020403020202020606066A
:100160000606060404020202040404080201104008
:100170008040102040804080080204018040201010
:100180000201108010204040200000000200090FF2
:100190000000030401000C0000000000000000004B
:1001A0000000000000000000830F11241FBECFEFED
:1001B000DAE0DEBFCDBF11E0A0E0B1E0E2E5FFE1B3
:1001C00002C005900D92A034B107D9F722E0A0E457
:1001D000B1E001C01D92AD33B207E1F710E0C5ED0B
:1001E000D0E004C02197FE010E94980FC43DD107C2
:1001F000C9F70E941A0A0C94A70F0C940000FC0186
:100200008091EC01882311F13FB7F89482E080934C
:10021000E9002091F200822F90E01816190614F4DC
:1002200081E090E0882339F0289844E64093EB0180
:100230004091F1004083222339F02091F2002111F6
:1002400003C02BE62093E8003FBF08958FEF9FEF98
:1002500008952FB7F89483E08093E9009091E80027
:10026000892F807295FF04C09091F20080E4891B71
:100270002FBF08958091E30181110DC082E080932A
:10028000DF0184E08093E0011092E2011092E1012D
:1002900081E08093E3018FED91E0089581508F30EC
:1002A00008F047C0E82FF0E0E85AFE4F0C94980F92
:1002B0007501790167016D01710199019901990138
:1002C0007C01820186018A0190019901940180914B
:1002D00080008F77809380000895809180008F7DCB
:1002E000F9CF80918000877FF5CF84B58F7784BD6B
:1002F000089584B58F7DFBCF809190008F77809398
:1003000090000895809190008F7DF9CF80919000AA
:10031000877FF5CF8091C0008F778093C0000895CC
:100320008091C0008F7DF9CF8091C200877F80933C
:10033000C2000895CF93DF93282F30E0F901E757EB
:10034000FE4F8491F901E659FE4FD491F901E55B26
:10035000FE4FC491CC23A1F081110E944E01EC2FDD
:10036000F0E0EE0FFF1FE35CFE4FA591B491EC911E
:10037000ED2381E090E009F480E0DF91CF910895D2
:1003800080E090E0FACF1F93CF93DF93282F30E0E7
:10039000F901E757FE4F8491F901E659FE4FD491D8
:1003A000F901E55BFE4FC491CC23A9F0162F811112
:1003B0000E944E01EC2FF0E0EE0FFF1FE15DFE4FBB
:1003C000A591B4918FB7F894EC91111108C0D09514
:1003D000DE23DC938FBFDF91CF911F910895DE2B39
:1003E000F8CFCF93DF9390E0FC01E659FE4F2491C4
:1003F000855B9E4FFC0184918823D1F090E0880FAB
:10040000991FFC01EF5DFE4FA591B491FC01E15DE8
:10041000FE4FC591D49161110EC09FB7F8948C9195
:10042000E22FE0958E238C932881E223E8839FBFFF
:10043000DF91CF9108958FB7F894EC91E22BEC9374
:100440008FBFF6CF3FB7F8948091DB019091DC012C
:10045000A091DD01B091DE0126B5A89B05C02F3F1C
:1004600019F00196A11DB11D3FBFBA2FA92F982FDA
:100470008827BC01CD01620F711D811D911D42E0D5
:10048000660F771F881F991F4A95D1F70895CF925D
:10049000DF92EF92FF920E9422026B017C010E9488
:1004A00022026C197D098E099F09683E73408105FF
:1004B0009105A8F3FF90EF90DF90CF9008952FB7AC
:1004C000F8946091D7017091D8018091D9019091F1
:1004D000DA012FBF0895CF92DF92EF92FF920E9430
:1004E0005F026B017C0182E00E949A01892B89F0F6
:1004F0000E945F026C197D098E099F096131774264
:100500008105910580F380E0FF90EF90DF90CF9020
:10051000089581E0F9CF8F929F92AF92BF92CF92D0
:10052000DF92EF92FF926C010E945F024B015C012F
:100530000D2C000CEE08FF0882E00E949A01892B26
:10054000A9F40E945F02681979098A099B09C616F5
:10055000D706E806F90680F780E0FF90EF90DF907D
:10056000CF90BF90AF909F908F90089581E0F5CF8E
:10057000409142015091430120914001309141014D
:1005800042175307B4F49091E8009570E1F390910D
:10059000E80092FD19C08093F10080914201909192
:1005A000430101968F739927892B19F48EEF80935D
:1005B000E80080914201909143010196909343019C
:1005C0008093420181E0089580E00895DF92EF92E8
:1005D000FF920F931F93CF93DF93D82E8A01EB01E5
:1005E0007B01E40EF51ECE15DF0559F0D7FE12C0D3
:1005F000FE0184910E94B80221968111F4CF0FEF81
:100600001FEFC801DF91CF911F910F91FF90EF90E5
:10061000DF9008958881EECF0F931F93CF93DF93E0
:100620001F92CDB7DEB782E0898342E450E06CEAE6
:1006300070E080E80E94E6020E943A01DC01129616
:100640000D911C910115110589F0D801ED91FC91D6
:100650000280F381E02DBE016F5F7F4FC8010995D5
:1006600097FD04C0F80100851185ECCF89810F90BA
:10067000DF91CF911F910F910895615030F020913B
:10068000F100FC0120830196F8CF289884E680933E
:10069000EB0108958F929F92AF92BF92CF92DF921B
:1006A000EF92FF920F931F93CF93DF936C017B0127
:1006B0008A0180910B01882309F458C08091EC01D4
:1006C000882309F453C08091460180FF05C08091C2
:1006D000E00082608093E000E801B12C8AEFA82E50
:1006E00093E0892E2AE3922E209711F4BB20B9F1D2
:1006F0000E942901811106C0AA94AA20B9F10E9482
:100700004702F2CF8C171D0611F00CF08C2F9FB70B
:10071000F8948092E9002091E80025FD02C09FBF77
:10072000E3CF282F30E0C21BD30BF701815020F01C
:1007300041914093F100FACFE20EF31EBB2021F06D
:100740009092E800B12CEBCF8091E80085FDE7CFD7
:100750009092E800BB24B394209709F3F3CF5D98FF
:1007600084E680934501101611063CF081E090E08C
:10077000F6019383828310E000E0C801DF91CF91FE
:100780001F910F91FF90EF90DF90CF90BF90AF90AF
:100790009F908F900895CF93DF931F92CDB7DEB7D0
:1007A0006983DC01ED91FC910280F381E02D41E051
:1007B00050E0BE016F5F7F4F09950F90DF91CF91A1
:1007C000089583E08093E9008091F200882319F076
:1007D0008AE38093E80008950E94290190E008953B
:1007E000CF93DF931F92CDB7DEB7FC01848595854B
:1007F00097FD08C02FEF3FEF358724870F90DF91DB
:10080000CF910895CE0101960E94FF00019719F43F
:10081000898190E0F3CF8FEF9FEFF0CF0F931F937D
:10082000CF93DF931F92CDB7DEB78C01FC01848597
:10083000958597FF0BC0CE0101960E94FF0001979E
:1008400071F4898190E0F80195878487F8018485A7
:1008500095850F90DF91CF911F910F9108958FEFA4
:100860009FEFF1CFFC018485958597FD0BC09FB765
:10087000F89482E08093E9008091F2009FBF90E0BD
:10088000019608959FB7F89482E08093E9008091E3
:10089000F2009FBF90E00895CF92DF92EF92FF9217
:1008A0000F931F93CF93DF936B017C01D0E0C0E0E7
:1008B00010E000E00E9422026C197D098E099F0958
:1008C000603D77408105910548F485E00E949A01DA
:1008D0000817190709F021968C01ECCF81E02C97BD
:1008E0000CF480E0DF91CF911F910F91FF90EF907A
:1008F000DF90CF900895CF93DF93EC0161E084E027
:100900000E94C301CC0FDD1FCC0FDD1F2597CE0148
:100910000197F1F760E084E00E94C3012197F1F7AD
:10092000DF91CF9108958AEF90E00E947B048AEFD7
:1009300090E00E947B048AEF90E00E947B048AEFA3
:1009400090E00C947B04CF93DF93882359F0C8E0A8
:10095000D0E08DE790E00E947B042197D1F7DF91F2
:10096000CF910895DF91CF910C9493048F929F9231
:10097000AF92BF92CF92DF92EF92FF926C010E94F2
:100980005F024B015C010D2C000CEE08FF0885E0B6
:100990000E949A01892BA9F40E945F0268197909C3
:1009A0008A099B09C616D706E806F90680F780E093
:1009B000FF90EF90DF90CF90BF90AF909F908F907F
:1009C000089581E0F5CFCF92DF92EF92FF920F93DF
:1009D0001F93CF938C0120E137E2C9010E94B60436
:1009E0008823D9F00E942202F801608371838283F8
:1009F00093830E945F026B017C0185E00E949A0153
:100A0000892B69F00E945F026C197D098E099F098C
:100A1000693E73408105910580F3C0E019C088EEFE
:100A200093E00E94B604C82F8823B9F30E942202E3
:100A300028EE33E0F801C080D180E280F3806C19A9
:100A40007D098E099F096E3071408105910528F25C
:100A50008C2FCF911F910F91FF90EF90DF90CF904F
:100A60000895CF92DF92EF92FF920F931F93CF934F
:100A7000DF9383EC90E00197F1F710E000E0D0E025
:100A8000C0E083ECC82ED12C93E5E92E92E0F92E3C
:100A900061E087E00E94C30182E390E00E948B0244
:100AA00081110BC08FEF9FEFDF91CF911F910F91BD
:100AB000FF90EF90DF90CF900895C6010197F1F776
:100AC00083E00E949A01002E02C0880F991F0A94A9
:100AD000E2F7C82BD92B60E087E00E94C3010E9497
:100AE0006B028823F9F2C7010197F1F70F5F1F4FDF
:100AF0000830110569F6CE01D7CFCF93DF93EC0113
:100B00008731910574F4853191052CF4833091057A
:100B100011F0409741F460E18DEE91E00E94CB032B
:100B200002C04897C1F36C2F8DEE91E0DF91CF9119
:100B30000C94CB0366E08DEE91E00C94CB03CF9345
:100B4000C82F65E18DEE91E00E94CB036C2F8DEEF6
:100B500091E0CF910C94CB03CF92DF92EF92FF9272
:100B60000F931F93CF93DF9361E08DEE91E00E948E
:100B7000CB0368E08DEE91E00E94CB0362E08DEE46
:100B800091E00E94CB030E9422026B017C010BE8E2
:100B900011E082E00E949A01892BC1F40E94220296
:100BA0006C197D098E099F096135734C810591058A
:100BB00080F363E08DEE91E0DF91CF911F910F9173
:100BC000FF90EF90DF90CF900C94CB0361E087E033
:100BD0000E94C30189E00E949A0131E020E0892B44
:100BE00009F430E0C32FD22F88E00E949A01892BAC
:100BF00009F0C26083E00E949A01892B09F0C46069
:100C000086E00E949A01892B09F0C8600E946B025D
:100C100081110CC081E090E0DF91CF911F910F9185
:100C2000FF90EF90DF90CF900C949F05C801019743
:100C3000F1F760E087E00E94C30180E197E20E9443
:100C40008B02882339F361E087E00E94C30189E0C9
:100C50000E949A01892B09F0C06188E00E949A01E4
:100C6000892B09F0C06283E00E949A01892B09F068
:100C7000C06486E00E949A01892B09F0C0680E9436
:100C80006B02882339F2C8010197F1F760E087E031
:100C90000E94C3010E9422026B017C01CE010E94CE
:100CA0007D0577CFCF92DF92EF92FF92CF93DF93C4
:100CB0000E945F026B017C018DEE91E00E94320484
:100CC0000297A4F40E945F026C197D098E099F09A6
:100CD000613D77408105910578F38FEF9FEFDF91BC
:100CE000CF91FF90EF90DF90CF9008958DEE91E03F
:100CF0000E94F003EC018DEE91E00E94F00320E0F1
:100D0000382FC9018C2B9D2BEACFCF92DF92EF9227
:100D1000FF920E945F026B017C018DEE91E00E94C8
:100D20003204892B91F40E945F026C197D098E09AF
:100D30009F09613D77408105910578F38FEF9FEF23
:100D4000FF90EF90DF90CF9008958DEE91E00E949C
:100D5000F003F6CFFC018081918197FF03C091954C
:100D6000819591099195819591090895CF93DF938C
:100D700000D0CDB7DEB79A83898397FF14C0CE0128
:100D800001960E94AA0697FF0BC091958195910943
:100D90000E949F0581E00F900F90DF91CF91089501
:100DA00090E080E0F5CF80E0F6CFFC0101900020DC
:100DB000E9F73197AF01481B590BBC018DEE91E06B
:100DC0000C944A03CF93DF93CDB7DEB7A1970FB64C
:100DD000F894DEBF0FBECDBF19A2805D88A3CE01FF
:100DE00080960E94D506A1960FB6F894DEBF0FBE7E
:100DF000CDBFDF91CF9108951F920F920FB60F9242
:100E000011242F933F938F939F93AF93BF93809120
:100E1000D7019091D801A091D901B091DA01309118
:100E2000D60123E0230F2D3758F50196A11DB11DE2
:100E30002093D6018093D7019093D801A093D90134
:100E4000B093DA018091DB019091DC01A091DD018A
:100E5000B091DE010196A11DB11D8093DB0190933D
:100E6000DC01A093DD01B093DE01BF91AF919F91B2
:100E70008F913F912F910F900FBE0F901F9018955B
:100E800026E8230F0296A11DB11DD2CF1F920F920B
:100E90000FB60F9211248F939F938091E100909150
:100EA000E100937F9093E10083FF0FC01092E9006F
:100EB00091E09093EB001092EC0092E39093ED00A0
:100EC0001092EC0198E09093F00082FF22C093E032
:100ED0009093E9009091F200992319F09AE390938E
:100EE000E80090914501992341F09091450191507E
:100EF00090934501911101C05D9A9091EB01992366
:100F000041F09091EB0191509093EB01911101C050
:100F1000289A84FF18C08091E2008E7E81608093C1
:100F2000E2008091E1008F7E8093E1008091460194
:100F30008E7E8061809346019F918F910F900FBEAE
:100F40000F901F90189580FFF7CF8091E2008E7E62
:100F500080618093E2008091E1008E7E8093E100C9
:100F6000809146018E7E8160E5CF1F920F920FB671
:100F70000F921124CF92DF92EF92FF920F931F9363
:100F80002F933F934F935F936F937F938F939F9391
:100F9000AF93BF93EF93FF93CF93DF93CDB7DEB7BC
:100FA0006C97DEBFCDBF1092E9008091E80083FF0F
:100FB00025C068E0CE0145960E943D0382EF8093F4
:100FC000E8008D8987FF39C09091E80090FFFCCF41
:100FD000982F907609F034C19E894F89588D2F89BA
:100FE000F88C911131C0803861F580914701809370
:100FF000F1001092F1008EEF8093E8006C960FB62E
:10100000F894DEBF0FBECDBFDF91CF91FF91EF917E
:10101000BF91AF919F918F917F916F915F914F9110
:101020003F912F911F910F91FF90EF90DF90CF9004
:101030000F900FBE0F901F9018959EEF9093E800B1
:10104000C7CF1092F100D5CF913059F48111D3CF91
:101050004130510581F6809147018D7F8093470192
:10106000CACF933049F48111C6CF4130510519F6EA
:10107000809147018260F2CF953041F48091E80081
:1010800080FFFCCF20682093E300B5CF963009F0B5
:10109000A9C00B8D1C8D22E01092E9001092430133
:1010A00010924201F2122EC01092410110924001A2
:1010B0000E940C031F8299E09983FA8291E09E833B
:1010C00090EA98879AEF99872091420130914301E5
:1010D000275F3F4F3C832B838D831092E900109252
:1010E000430110924201109341010093400149E0F5
:1010F00050E0BE016F5F7F4F80E00E94E6020E94D9
:101100000C0379CF10934101009340010E943A01F2
:10111000DC0112960D911C910115110509F451C1C4
:10112000D801ED91FC910480F581E02DBE016B5E4C
:101130007F4FC8010995009709F03EC1F80100856D
:101140001185EACFF3E0FF120EC08F89882309F4DE
:1011500040C0823061F440E860E180E191E00E94AB
:10116000E709811148CF81E28093EB0047CF8130BE
:1011700029F440E86BE084E091E0F1CF833099F707
:101180000E943A01DC011296ED90FC908E010F5FF7
:101190001F4F6801E114F10479F0D701ED91FC9142
:1011A0000680F781E02DB801C7010995080F111DD0
:1011B000F701E084F184EECFD8011C92F601019092
:1011C0000020E9F73197BF016C197D0940E0C601A5
:1011D000C6CF6EEE70E0FB01449150E080E80E94C3
:1011E000E60209CF973009F4BECF983021F481E0B0
:1011F0008093F10000CF993009F0FDCE837009F0A3
:10120000B2CFEFE1F1E081E031E096E321912223DA
:1012100071F08093E9003093EB00DF0111972C917E
:101220002093EC009093ED008F5F873079F78EE785
:101230008093EA001092EA008F898093EC01DBCE64
:101240008B8D9C8D1092E900109243011092420107
:101250009093410180934001898D811192C08E89C4
:101260009D89913A49F4813209F07DCF47E050E001
:1012700064E071E080E0B3CF913209F074CF833243
:1012800069F48F89988DB0E0A0E08093000190937D
:101290000101A0930201B0930301ADCE803269F445
:1012A0008091E80082FFFCCF67E084E091E00E943B
:1012B0003D038BEF8093E8009ECE823209F09BCEF7
:1012C0008F8980930B01EEEFFFE7859194918B3F1F
:1012D0009C4D51F1E0E0F8E080910401909105010E
:1012E000A0910601B0910701803B9440A105B10592
:1012F000F1F480910B0180FD1AC0EE3F8AE0F807FF
:1013000089F587E797E791838083809160008093D8
:10131000440188E19BE00FB6F894A89580936000A3
:101320000FBE9093600067CEEEEFFAE0D5CF8081DC
:1013300091818737974709F05ECEA895809160002C
:101340008861809360008091440180936000EE3F4B
:101350002AE0F20789F08091FE0A9091FF0A9183BA
:10136000808349CE808191818737980751F290938D
:10137000FF0A8093FE0AC5CF1092FF0A1092FE0A60
:101380003ACE0E943A01DC0112960D911C91011592
:10139000110509F4E8CED801ED91FC910190F0819E
:1013A000E02DBE016B5E7F4FC8010995811123CEF0
:1013B000F80100851185EBCF181619060CF41BCE29
:1013C000D2CEF1E0FF12BECE62EF70E004CFEF921A
:1013D000FF920F931F93CF93DF93F82E192FE62ED2
:1013E000042F81E0860F880F0E94B80283E00E94DC
:1013F000B802CF2DD12FEC0EFD2EF11CCE15DF053E
:10140000B9F007FF13C0FE0184910E94B802182FA3
:1014100080E00E94B802812321968111EFCFDF91F5
:10142000CF911F910F91FF90EF9008958881EDCF9C
:1014300081E0F5CFCF93DF93CDB7DEB729970FB615
:10144000F894DEBF0FBECDBF789484B5826084BDB2
:1014500084B5816084BD85B5826085BD85B58160B8
:1014600085BD80916E00816080936E001092810036
:1014700080918100826080938100809181008160F1
:1014800080938100809180008160809380008091B2
:10149000910082608093910080919100816080939F
:1014A0009100809190008160809390008091C100B4
:1014B00084608093C1008091C10082608093C100EC
:1014C0008091C10081608093C1008091C3008160E0
:1014D0008093C3008091C00082608093C00080919F
:1014E000C20081608093C20080917A008460809302
:1014F0007A0080917A00826080937A0080917A00ED
:10150000816080937A0080917A00806880937A006D
:101510001092EC0110924701109246018091D70081
:1015200081608093D70080EA8093D80089B580617C
:1015300089BD89B5826089BD09B400FEFDCF0E94D6
:1015400047028091D8008F7C80618093D800809181
:10155000E000807F8093E0008091E1008E7E8093A8
:10156000E1008DE08093E200559A209A8FEF9FEF83
:101570009093FA018093F90161E087E00E94F10104
:1015800060E085E00E94F10160E083E00E94F101EB
:1015900060E082E00E94F10161E084E00E94F101DC
:1015A00060E086E00E94F10160E088E00E94F101C5
:1015B00060E089E00E94F10161E08DE00E94F101AC
:1015C00043E2242E312C812C912C540183948DEEF6
:1015D00091E00E943204892B41F18DEE91E00E944E
:1015E000F00366E18631910509F419C10197E9F428
:1015F0000E94850698878F8397FF0AC0CE010796C1
:101600000E94AA0697FFF2C29195819591095DC249
:101610008630910509F408C10CF0C0C081309105F5
:1016200009F4CFC0029709F4C9C085E00E949A016D
:101630008C01892B71F10E9431057C0197FD29C035
:101640000F97029728F0C7018B7F8134910509F528
:1016500061E087E00E94C3018BE99CE80197F1F704
:1016600060E087E00E94C30161E08DEE91E00E949E
:10167000CB0363E08DEE91E00E94CB036E2D8DEEE7
:1016800091E00E94CB03F1E4EF16F10411F40E9403
:10169000AC0582E00E949A01892B09F44EC0011525
:1016A000110509F04AC0F12CE12C83EC682E712C55
:1016B00080E197E20E948B02882309F43EC0C301B7
:1016C0000197F1F783E00E949A016C0161E087E0E5
:1016D0000E94C3010E946B02882379F1C301019724
:1016E000F1F760E087E00E94C3010E2C02C0CC0C31
:1016F000DD1C0A94E2F70C291D292FEFE21AF20AE9
:1017000048E0E416F104A1F60033110509F4E2C340
:10171000003F110509F4E1C317FD0FC061E08DEE34
:1017200091E00E94CB0364E08DEE91E00E94CB0338
:10173000602F8DEE91E00E94CB030E945F0200912A
:10174000D2011091D3012091D4013091D5016B01C8
:101750007C01C01AD10AE20AF30A97018601083E09
:1017600013402105310590F06093D2017093D301AD
:101770008093D4019093D5018DE00E949A0161E09D
:10178000892B09F060E08DE00E94C30180E090E0C9
:10179000892B09F41CCF0E94000019CF87309105D6
:1017A00009F474C1089709F040CF0E9485069E8312
:1017B0008D8397FF1EC2CE01059622CF0E949A0507
:1017C00034CF61E08DEE91E00E94CB0361E08DEEBD
:1017D00091E00E94CB0363E08DEE91E00E94CB0389
:1017E00060E48DEE91E00E94CB0362E08DEE91E02B
:1017F0000E94CB0385E291E00E94D50681E090E053
:101800000E94E2068BE391E00E94D50683E090E01F
:101810000E94E2068DE391E00E94D50663E08DEE22
:1018200091E00E94CB0301CF0E9452068C010E94DE
:10183000B6068111FACE902F812F17FF02C090E0DB
:1018400080E01092D1011092D0011092CF0110923D
:10185000CE0130E420E0013411050CF49C013093FA
:10186000CC012093CD011092CB011092CA0190932C
:10187000C8018093C9010E9485067C010E94B606BA
:1018800089878111D2CE8701F7FE02C010E000E007
:101890000E949A050E945F022B013C01C090C80182
:1018A000D090C9011C141D04CCF02091CE013091C0
:1018B000CF018091D0019091D101281739070CF404
:1018C00068C0F89481E00E94A30481E00E94A30410
:1018D000789460E08DE00E94C301A7CEE090CC0137
:1018E000F090CD018091CA019091CB018E159F059A
:1018F00064F58DEE91E00E94320418161906A4F4E6
:101900008DEE91E00E94F0032091CA013091CB014D
:10191000A9014F5F5F4F5093CB014093CA012857F5
:101920003E4FF9018083E5CFC1010197F1F70E9495
:101930005F02641975098609970969387341810541
:10194000910560F28FEF9FEF26C0CE18DF08D0928E
:10195000C901C092C801A70168E871E088E491E07C
:101960000E949E0FF092D101E092D0011092CF011F
:101970001092CE0121E4C216D1041CF030E4C32E33
:10198000D12CD092CD01C092CC011092CB011092FB
:10199000CA0190E080E00E94B606811146CEF8941C
:1019A0008091CE019091CF012091D0013091D10151
:1019B0008217930714F078946BCF9C012F5F3F4FF1
:1019C0003093CF012093CE01885B9E4FFC01E080D5
:1019D000F12CC984CC2009F44AC00E94930424E06D
:1019E000C22ED12CC7010C2C02C0959587950A9464
:1019F000E2F781700E94A3044FEFC41AD40A88E072
:101A0000C816D10479F781E00E94A3040E949304D0
:101A1000D12CC12CC7010C2C02C0959587950A9436
:101A2000E2F781700E94A304EFEFCE1ADE0AF4E021
:101A3000CF16D10479F785E0C82ED12C01151105F8
:101A400019F4B2E0CB2ED12CF12CE12C81E00E94D4
:101A5000A3042FEFE21AF20ACE14DF04B9F701153E
:101A6000110511F00150110941E0498799CF61E05A
:101A70008DE00E94C3019AEFC92ED12C81E00E9413
:101A8000A30421E0C21AD108C9F7A7CF0E949A0582
:101A900085E00E949A01892B09F022C28DEE91E027
:101AA0000E943204892BA1F38DEE91E00E94F00395
:101AB0008831910511F04B9759F782E090E005C00D
:101AC000409709F411C283E090E00E949F05ADCDDC
:101AD00069817A818B819C810E944C0481113BC079
:101AE00010E000E0A4E0EA2EF12C0E9422020E9405
:101AF0004C04B501A4010E2C04C0440F551F661FF1
:101B0000771F0A94D2F7882309F43EC0042B152BC3
:101B10004FEFE41AF40A88E0E816F10431F70E9466
:101B200022020E944C04811134C00BEF1FEFC80148
:101B30000E94B606811179CDC11005C062E08DEE1C
:101B400091E00E94CB03C80117FF02C090E080E043
:101B50000E947D05CD2C0E9422022B013C01CE016A
:101B600001960E94E304182F0E942202641975094D
:101B700086099709112309F4C3C1613177428105B0
:101B8000910508F4A5CF4ACE40955095042315231E
:101B9000BFCF0E9422020E944C048111C6CFF12CBB
:101BA000E12C0E9422020E944C04B501A4010E2CDB
:101BB00004C0440F551F661F771F0A94D2F788236D
:101BC00081F0042B152BEFEFEE1AFE0AF4E0EF166E
:101BD000F10439F70E9422020E944C048111A7CF20
:101BE000A4CF4095509504231523EDCF90E080E0DD
:101BF0006CCF0E9452069A83898397FF0FC0CE0153
:101C000001960E94AA0697FF06C0919581959109B9
:101C10000E949F05A2C090E080E0FACF0E949A0542
:101C200089819A81382F292F97FF02C030E020E068
:101C30001092D1011092D0011092CF011092CE01DA
:101C400081349105ACF190E480E09093CC018093D5
:101C5000CD011092CB011092CA013093C80120939C
:101C6000C901F3ECEF2EF12C0E945F028DEE91E0A2
:101C70000E9432040091CA011091CB01C090CC01A6
:101C8000D090CD0118161906ACF40C151D0594F46E
:101C90008DEE91E00E94F00398012F5F3F4F30934B
:101CA000CB012093CA01F801E857FE4F8083DECFB5
:101CB000C901CBCFC016D10699F52091D001309142
:101CC000D1018091CE019091CF012817390741F5BC
:101CD0000091C8011091C9010C191D091093C90187
:101CE0000093C801A60168E871E088E491E00E94D1
:101CF0009E0FD092D101C092D0011092CF011092CC
:101D0000CE010134110514F000E410E01093CD0170
:101D10000093CC011092CB011092CA010E949A0547
:101D20008091CE019091CF012091D0013091D101CD
:101D300082179307DCF49C012F5F3F4F3093CF0154
:101D40002093CE01885B9E4FFC01D0800D2D10E0CA
:101D5000C8010E94B606882391F08D819E818F3F35
:101D6000910509F062CC0E94AC055FCC8091C8015E
:101D70009091C901181619060CF478CFEECF60E0E7
:101D800089E00E94C30160E088E00E94C30160E036
:101D900083E00E94C30160E086E00E94C30160E02E
:101DA00087E00E94C301C1010197F1F761E089E07A
:101DB0000E94F10161E088E00E94F10161E083E0AE
:101DC0000E94F10161E086E00E94F1016D2D6170D9
:101DD00089E00E94C301B80175956795617088E03C
:101DE0000E94C301B80175956795759567956170F7
:101DF00083E00E94C301B801E3E075956795EA9519
:101E0000E1F7617086E00E94C30161E087E00E9413
:101E1000C30180E197E20E948B02882309F457C036
:101E200060E087E00E94C301C7010197F1F70E94BB
:101E30006B02882309F44BC0B80194E0759567954F
:101E40009A95E1F7617089E00E94C301B80125E02D
:101E5000759567952A95E1F7617088E00E94C30146
:101E600036E0159507953A95E1F7602F617083E0AC
:101E70000E94C3016D2D661F6627661F86E00E94C3
:101E8000C30161E087E00E94C30180E197E20E9404
:101E90008B028823E1F060E087E00E94C301C70164
:101EA0000197F1F70E946B02882389F060E089E0D6
:101EB0000E94F10160E088E00E94F10160E083E0AF
:101EC0000E94F10160E086E00E94F101CDCE81E048
:101ED00090E09ECE0FE410E021CC00E310E01ECC99
:101EE0000E94310597FFECCD19821A821B821C8259
:101EF000CE0101960E94E304D82EC12C8111E8CDB9
:101F000081E090E0E2CDEDEEF1E01382128288EE06
:101F100093E0A0E0B0E084839583A683B78380E15B
:101F200091E0918380838FEF9FEF95878487089559
:101F3000EE0FFF1F0590F491E02D0994FB01DC01E9
:101F400002C001900D9241505040D8F70895F89486
:021F5000FFCFC1
:101F5200FFFFFFFF00E100000000000000000000A2
:101F6200CB034A03EC03E1033204F0030E0400C185
:101F7200808100000053686172702041726475694B
:101F82006E6F2044726976657220002E000D0A0081
:00000001FF
