:100000000C9435010C9466010C9466010C94660105
:100010000C9466010C9466010C9466010C946601C4
:100020000C9466010C9466010C9466010C946601B4
:100030000C9466010C9466010C9466010C946601A4
:100040000C9466010C9466010C9466010C94660194
:100050000C9466010C9466010C9466010C94740770
:100060000C9466010C94E8070C94BE070C9466018E
:100070000C9466010C9466010C9466010C94660164
:100080000C9466010C9466010C9466010C94660154
:100090000C9466010C9466010C9466010C94660144
:1000A0000C9466010C9466010C9466010C94660134
:1000B0000C9466010C9466010C9466010C94660124
:1000C0000C9466010C9466010C9466010C94660114
:1000D0000C9466010C9466010C9466010C94660104
:1000E0000C9466010C94BD010C949B010C941C03B0
:1000F0000C9486010C940D030C9494010C949001C3
:100100000C94E0020C94A1010C94C7010C943003F0
:100110000C948C010C94AF010C9498010C94910CEC
:100120000C94C6010C9476030C94B3010C94C80390
:100130000C94AB010C94B9010C94CB010C94A50167
:100140000C94C1010C943E03000021002400270000
:100150002A002D00300033000101000004010701D6
:100160000A0100002200250028002B002E0031008B
:10017000340002010000050108010B01000020000D
:100180002300260029002C002F003200000100006F
:10019000030106010901050505050705080808080A
:1001A000020202020A0A080804040404010101010F
:1001B000010101010303030303030303040707070A
:1001C0000C0C0C0C0C0C0C0C0202020206060606AF
:1001D000060606060B0B0B0B0B0B0B0B010210207C
:1001E000200808102040102040800201020108046D
:1001F0000201010204081020408080402010080401
:100200000201800402018040201008040201080459
:10021000020101020408102040800102040810209D
:10022000408000000A0B02090C0D0E0807030401B0
:1002300000000000000000000000000000000000BE
:10024000000000000000000000000000000012118B
:10025000100000000000000000000000000000008E
:100260000000000000000000910C11241FBECFEF21
:10027000D1E2DEBFCDBF00E00CBF12E0A0E0B2E0F3
:10028000E2EAF9E100E00BBF02C007900D92AE3246
:10029000B107D9F723E0AEE2B2E001C01D92A23669
:1002A000B207E1F711E0C5E3D1E000E006C0219715
:1002B0000109802FFE010E94BE0CC433D10780E0EB
:1002C0000807A9F70E941E080C94CF0C0C9400009C
:1002D0008150823108F05AC0E82FF0E08827EC58AE
:1002E000FE4F8F4F0C94BE0C9401980186018C0137
:1002F0009001C6019B01A101A501AB01AF01B301B2
:10030000B901BD01C601C101C701CB0180918000C7
:100310008F77809380000895809180008F7DF9CF42
:1003200080918000877FF5CF84B58F7784BD089555
:1003300084B58F7DFBCF8091B0008F778093B00024
:1003400008958091B0008F7DF9CF809190008F77D4
:10035000809390000895809190008F7DF9CF8091D7
:100360009000877FF5CF8091A0008F778093A000C9
:1003700008958091A0008F7DF9CF8091A000877FA4
:10038000F5CF809120018F7780932001089580918F
:1003900020018F7DF9CF80912001877FF5CFCF930A
:1003A000DF93282F30E0F901EE5DFD4F8491F901D4
:1003B000E452FE4FD491F901EA56FE4FC491CC238A
:1003C000A1F081110E946801EC2FF0E0EE0FFF1FF9
:1003D000E458FE4FA591B491EC91ED2381E090E0BB
:1003E00009F480E0DF91CF91089580E090E0FACFAA
:1003F0001F93CF93DF93282F30E0F901EE5DFD4F7F
:100400008491F901E452FE4FD491F901EA56FE4F6E
:10041000C491CC23A9F0162F81110E946801EC2F02
:10042000F0E0EE0FFF1FEE59FE4FA591B4918FB78C
:10043000F894EC91111108C0D095DE23DC938FBFA6
:10044000DF91CF911F910895DE2BF8CFCF93DF93EB
:1004500090E0FC01E452FE4F24918A569E4FFC012D
:1004600084918823C9F090E0880F991FFC01E85B14
:10047000FE4FA591B491FC01EE59FE4FC591D49168
:1004800061110DC09FB7F8948C91209582238C93B5
:100490008881282328839FBFDF91CF910895623000
:1004A00051F49FB7F8943C91822F809583238C93CD
:1004B000E8812E2BEFCF8FB7F894EC912E2B2C9355
:1004C0008FBFEACF3FB7F8948091370290913802FE
:1004D000A0913902B0913A0226B5A89B05C02F3FE2
:1004E00019F00196A11DB11D3FBFBA2FA92F982F5A
:1004F0008827BC01CD01620F711D811D911D42E055
:10050000660F771F881F991F4A95D1F708952FB757
:10051000F894609133027091340280913502909189
:1005200036022FBF0895CF92DF92EF92FF920E9482
:1005300087026B017C0182E00E94CF01892B89F048
:100540000E9487026C197D098E099F0961317742EB
:100550008105910580F380E0FF90EF90DF90CF90D0
:10056000089581E0F9CF8F929F92AF92BF92CF9280
:10057000DF92EF92FF926C010E9487024B015C01B7
:100580000D2C000CEE08FF0882E00E94CF01892BA1
:10059000A9F40E948702681979098A099B09C6167D
:1005A000D706E806F90680F780E0FF90EF90DF902D
:1005B000CF90BF90AF909F908F90089581E0F5CF3E
:1005C000AF92BF92CF92DF92EF92FF920F931F9361
:1005D000CF93DF936C017B018B01040F151FEB019F
:1005E0005E01AE18BF08C017D10759F06991D60156
:1005F000ED91FC910190F081E02DC6011995892BB8
:1006000079F7C501DF91CF911F910F91FF90EF9086
:10061000DF90CF90BF90AF900895FC01538D448D33
:10062000252F30E0842F90E0821B930B541710F09D
:10063000CF96089501970895FC01918D828D9817AA
:1006400061F0A28DAE0FBF2FB11D5D968C91928D82
:100650009F5F9F73928F90E008958FEF9FEF0895B3
:10066000FC01918D828D981731F0828DE80FF11D7C
:10067000858D90E008958FEF9FEF0895FC01918D97
:10068000228D892F90E0805C9F4F821B91098F7390
:100690009927089585EC92E00E943E0321E0892B82
:1006A00009F420E0822F0895FC01A48DA80FB92F32
:1006B000B11DA35ABF4F2C91848D90E001968F738A
:1006C0009927848FA689B7892C93A089B1898C91A9
:1006D000837080648C93938D848D981306C00288F8
:1006E000F389E02D80818F7D80830895EF92FF92C2
:1006F0000F931F93CF93DF93EC0181E0888F9B8D45
:100700008C8D98131AC0E889F989808185FF15C0FE
:100710009FB7F894EE89FF896083E889F989808121
:100720008370806480839FBF81E090E0DF91CF91F0
:100730001F910F91FF90EF900895F62E0B8D10E012
:100740000F5F1F4F0F731127E02E8C8D8E110CC081
:100750000FB607FCFACFE889F989808185FFF5CFCC
:10076000CE010E945403F1CFEB8DEC0FFD2FF11D54
:10077000E35AFF4FF0829FB7F8940B8FEA89FB8909
:1007800080818062CFCF682F85EC92E00C94760355
:10079000CF93DF93EC01888D8823B9F0AA89BB89B8
:1007A000E889F9898C9185FD03C0808186FD0DC0A3
:1007B0000FB607FCF7CF8C9185FFF2CF808185FFC4
:1007C000EDCFCE010E945403E9CFDF91CF91089580
:1007D00080E090E0892B29F00E944A0381110E9459
:1007E000000080E090E0892B49F080E090E0892BC8
:1007F00029F00E94000081110E94000080E090E03A
:10080000892B49F080E090E0892B29F00E940000BC
:1008100081110E94000080E090E0892B49F080E087
:1008200090E0892B29F00E94000081110C940000B7
:100830000895CF92DF92EF92FF920F931F93CF9381
:10084000DF936B017C01D0E0C0E010E000E00E948B
:1008500062026C197D098E099F09603D7740810510
:10086000910548F485E00E94CF010817190709F0A7
:1008700021968C01ECCF81E02C970CF480E0DF9185
:10088000CF911F910F91FF90EF90DF90CF9008953F
:10089000CF93DF93EC0161E084E00E94F801CC0F7C
:1008A000DD1FCC0FDD1F2597CE010197F1F760E02A
:1008B00084E00E94F8012197F1F7DF91CF9108952C
:1008C0008AEF90E00E9448048AEF90E00E9448047A
:1008D0008AEF90E00E9448048AEF90E00C9448046C
:1008E0008F929F92AF92BF92CF92DF92EF92FF9240
:1008F0006C010E9487024B015C010D2C000CEE087C
:10090000FF0885E00E94CF01892BA9F40E9487028D
:10091000681979098A099B09C616D706E806F906F7
:1009200080F780E0FF90EF90DF90CF90BF90AF9086
:100930009F908F90089581E0F5CFCF92DF92EF9254
:10094000FF920F931F93CF938C0120E137E2C901EF
:100950000E9470048823D9F00E946202F80160832B
:100960007183828393830E9487026B017C0185E0FF
:100970000E94CF01892B69F00E9487026C197D09C2
:100980008E099F09693E73408105910580F3C0E09F
:1009900019C088EE93E00E947004C82F8823B9F331
:1009A0000E94620228EE33E0F801C080D180E2802C
:1009B000F3806C197D098E099F096E3071408105A5
:1009C000910528F28C2FCF911F910F91FF90EF90FE
:1009D000DF90CF900895CF92DF92EF92FF920F9326
:1009E0001F93CF93DF9383EC90E00197F1F710E032
:1009F00000E0D0E0C0E083ECC82ED12C93E5E92ED6
:100A000092E0F92E61E087E00E94F80182E390E035
:100A10000E94B30281110BC08FEF9FEFDF91CF9146
:100A20001F910F91FF90EF90DF90CF900895C60136
:100A30000197F1F783E00E94CF01002E02C0880FDA
:100A4000991F0A94E2F7C82BD92B60E087E00E9437
:100A5000F8010E9493028823F9F2C7010197F1F788
:100A60000F5F1F4F0830110569F6CE01D7CFCF9326
:100A7000DF9385EC92E00E943E0318161906D4F429
:100A8000C091C302D091C4028091C1029091C20270
:100A9000C817D9077CF485EC92E00E941C039E01E4
:100AA0002F5F3F4F3093C4022093C302CF57DD4FD7
:100AB0008883DFCFDF91CF910895CF93DF93C82F45
:100AC0000E943705CC2359F0C8E0D0E08DE790E0D4
:100AD0000E9448042197D1F7DF91CF910895DF91CB
:100AE000CF910C946004CF93DF93EC018731910593
:100AF00074F4853191052CF48330910511F0409701
:100B000041F460E185EC92E00E94760302C04897D0
:100B1000C1F3CE01DF91CF910C94C30366E085EC65
:100B200092E00C947603CF93DF93EC0165E185ECC2
:100B300092E00E947603CE01DF91CF910C94C30323
:100B4000CF92DF92EF92FF920F931F93CF93DF9399
:100B500061E085EC92E00E94760388E090E00E94DC
:100B6000C30362E085EC92E00E9476030E94620279
:100B70006B017C010BE811E082E00E94CF01892B20
:100B8000C1F40E9462026C197D098E099F096135CA
:100B9000734C8105910580F363E085EC92E0DF9171
:100BA000CF911F910F91FF90EF90DF90CF900C9419
:100BB000760361E087E00E94F80189E00E94CF019E
:100BC00031E020E0892B09F430E0C32FD22F88E0F8
:100BD0000E94CF01892B09F0C26083E00E94CF01FF
:100BE000892B09F0C46086E00E94CF01892B09F0AF
:100BF000C8600E94930281110CC081E090E0DF91F7
:100C0000CF911F910F91FF90EF90DF90CF900C94B8
:100C10009305C8010197F1F760E087E00E94F801B1
:100C200080E197E20E94B302882339F361E087E014
:100C30000E94F80189E00E94CF01892B09F0C06170
:100C400088E00E94CF01892B09F0C06283E00E94F6
:100C5000CF01892B09F0C06486E00E94CF01892B67
:100C600009F0C0680E949302882339F2C8010197F5
:100C7000F1F760E087E00E94F8010E9462026B01D8
:100C80007C01CE010E94730577CFCF92DF92EF9265
:100C9000FF92CF93DF930E9487026B017C0185EC6A
:100CA00092E00E943E030297A4F40E9487026C190E
:100CB0007D098E099F09693E73408105910578F38E
:100CC0008FEF9FEFDF91CF91FF90EF90DF90CF906C
:100CD000089585EC92E00E941C03EC0185EC92E003
:100CE0000E941C0320E0382FC9018C2B9D2BEACFDA
:100CF000CF92DF92EF92FF920E9487026B017C01FC
:100D000085EC92E00E943E03892B91F40E948702B9
:100D10006C197D098E099F09693E73408105910513
:100D200078F38FEF9FEFFF90EF90DF90CF900895D3
:100D300085EC92E00E941C03F6CFFC01808191813A
:100D400097FF03C09195819591099195819591099E
:100D50000895CF93DF931F921F92CDB7DEB79A838A
:100D6000898397FF14C0CE0101960E949D0697FFCC
:100D70000BC09195819591090E94930581E00F9098
:100D80000F90DF91CF91089590E080E0F5CF80E063
:100D9000F6CFFC0101900020E9F73197AF01481B25
:100DA000590BBC0185EC92E00C94E0020F931F9369
:100DB000CF93DF930E94870285EC92E00E943E036E
:100DC000C091C302D091C4020091C1021091C2022D
:100DD0001816190694F4C017D1077CF485EC92E03C
:100DE0000E941C039E012F5F3F4F3093C40220934B
:100DF000C302CF57DD4F8883DFCF0C171D0799F54E
:100E000020917D0230917E0280917F02909180023C
:100E10002817390741F5C0917B02D0917C02C01B95
:100E2000D10BD0937C02C0937B02A80161E872E0F1
:100E30008BE392E00E94C60C10937E0200937D0229
:100E40001092800210927F02C134D10514F0C0E4E8
:100E5000D0E0D093C202C093C1021092C40210929B
:100E6000C3020E948E0580917F02909180022091A2
:100E70007D0230917E02821793078CF49C012F5FD4
:100E80003F4F3093800220937F02855C9D4FFC0191
:100E9000808190E0DF91CF911F910F910895809113
:100EA0007B0290917C02181619060CF485CF81E024
:100EB0009FEFF0CFCF93DF93CDB7DEB7A1970FB6FB
:100EC000F894DEBF0FBECDBF19A281E388A3CE0187
:100ED00080960E94C906A1960FB6F894DEBF0FBE99
:100EE000CDBFDF91CF9108951F920F920FB60F9251
:100EF00011242F933F938F939F93AF93BF93809130
:100F0000330290913402A0913502B09136023091B3
:100F1000320223E0230F2D3758F50196A11DB11D94
:100F2000209332028093330290933402A0933502CF
:100F3000B09336028091370290913802A091390225
:100F4000B0913A020196A11DB11D80933702909392
:100F50003802A0933902B0933A02BF91AF919F91AA
:100F60008F913F912F910F900FBE0F901F9018956A
:100F700026E8230F0296A11DB11DD2CF1F920F921A
:100F80000FB60F9211240BB60F922F933F934F93EE
:100F90005F936F937F938F939F93AF93BF93EF93E1
:100FA000FF9385EC92E00E945403FF91EF91BF9173
:100FB000AF919F918F917F916F915F914F913F91F1
:100FC0002F910F900BBE0F900FBE0F901F90189592
:100FD0001F920F920FB60F9211240BB60F922F9300
:100FE0008F939F93EF93FF93E091D502F091D602F8
:100FF0008081E091DB02F091DC0282FD1DC09081D6
:101000008091DE028F5F8F732091DF02821741F0A3
:10101000E091DE02F0E0EB53FD4F958F8093DE020E
:10102000FF91EF919F918F912F910F900BBE0F9099
:101030000FBE0F901F9018958081F2CFCF93DF9352
:1010400000D000D01F921F92CDB7DEB7789484B540
:10105000826084BD84B5816084BD85B5826085BDB4
:1010600085B5816085BD80916E00816080936E0042
:101070001092810080918100826080938100809134
:1010800081008160809381008091800081608093E5
:1010900080008091B10084608093B1008091B000A5
:1010A00081608093B0008091910082608093910074
:1010B0008091910081608093910080919000816087
:1010C000809390008091A10082608093A100809124
:1010D000A10081608093A1008091A0008160809335
:1010E000A0008091210182608093210180912101E3
:1010F0008160809321018091200181608093200193
:1011000080917A00846080937A0080917A00826076
:1011100080937A0080917A00816080937A00809138
:101120007A00806880937A001092C100E091D50225
:10113000F091D60282E08083E091D102F091D20258
:101140001082E091D302F091D40280E1808310926A
:10115000DD02E091D902F091DA0286E08083E0912D
:10116000D702F091D802808180618083E091D7021C
:10117000F091D802808188608083E091D702F0915D
:10118000D802808180688083E091D702F091D802F4
:1011900080818F7D808361E087E00E94260260E08D
:1011A00085E00E94260260E083E00E94260260E063
:1011B00082E00E94260261E084E00E94260260E054
:1011C00086E00E94260260E088E00E94260260E03D
:1011D00089E00E94260261E08DE00E94260262E022
:1011E0008EE00E942602812C912C5401839413ECF2
:1011F000612E712C85EC92E00E943E03892B41F117
:1012000085EC92E00E941C0366E18631910509F4A9
:1012100006C10197E9F40E94780698878F8397FFAB
:101220000AC0CE0107960E949D0697FF5FC2919566
:1012300081959109CAC18630910509F4F5C00CF079
:10124000B2C08130910509F4C1C0029709F4BBC056
:1012500085E00E94CF018C01892B59F10E94EB049B
:101260007C0197FD26C00F97029728F0C7018B7F5E
:1012700081349105F1F461E087E00E94F8018BE987
:101280009CE80197F1F760E087E00E94F80161E0D7
:1012900085EC92E00E94760383E090E00E94C30315
:1012A000C7010E94C30381E4E816F10411F40E940F
:1012B000A00582E00E94CF01892B09F448C00115E6
:1012C000110509F044C0D12CC12C80E197E20E94A5
:1012D000B302882309F43BC0C3010197F1F783E00F
:1012E0000E94CF017C0161E087E00E94F8010E942A
:1012F0009302882361F1C3010197F1F760E087E071
:101300000E94F8010C2C02C0EE0CFF1C0A94E2F7BC
:101310000E291F292FEFC21AD20A48E0C416D104A1
:10132000A1F60033110509F4E3C2003F110509F4E9
:10133000E2C217FD0CC061E085EC92E00E947603EA
:1013400084E090E00E94C303C8010E94C3030E948E
:10135000870200912E0210912F02209130023091CD
:1013600031026B017C01C01AD10AE20AF30A97012B
:101370008601083E13402105310590F060932E024E
:1013800070932F0280933002909331028DE00E947F
:10139000CF0161E0892B09F060E08DE00E94F80147
:1013A0000E94E80327CF8730910509F4EFC0089722
:1013B00009F04ECF0E9478069E838D8397FF99C1D6
:1013C000CE01059630CF0E948E0542CF61E085ECBC
:1013D00092E00E94760361E085EC92E00E94760341
:1013E00061E085EC92E00E94760380E490E00E9448
:1013F000C30362E085EC92E00E94760382E192E012
:101400000E94C9060E945A0788E292E00E94C9061B
:101410000E945A078AE292E00E94C90663E085ECC6
:1014200092E00E94760314CF0E9445068C010E9430
:10143000A90681110DCF902F812F17FF02C090E0D8
:1014400080E010927E0210927D0210928002109233
:101450007F0230E420E0013411050CF49C0130934C
:10146000C1022093C2021092C4021092C302909350
:101470007B0280937C020E9478067C010E94A90670
:10148000D82E8111E5CE8701F7FE02C010E000E002
:101490000E948E050E94D6067C0181302FEF9207B4
:1014A00059F481E00E945D0581E00E945D0560E0E5
:1014B0008DE00E94F801CCCE0E94A9068111C8CE11
:1014C000DD2009F454C0F7FE02C0F12CE12C0E948B
:1014D00037050E946004A4E0CA2ED12C27015524B0
:1014E000C2010C2C02C0959587950A94E2F7817091
:1014F0000E945D058FEFC81AD80A28E0C216D104F1
:1015000079F781E00E945D050E9437050E94600422
:10151000F12CE12CC2010E2C02C0959587950A94FE
:10152000E2F781700E945D054FEFE41AF40A84E04F
:10153000E816F10479F7E5E0CE2ED12C011511055E
:1015400019F472E0C72ED12CF12CE12C81E00E941D
:101550005D052FEFE21AF20ACE14DF04B9F7011588
:10156000110511F001501109DD24D39493CF61E0EE
:101570008DE00E94F801FAEFCF2ED12C81E00E947D
:101580005D0541E0C41AD108C9F79DCF0E948E05C0
:1015900085E00E94CF01892B09F0B0C185EC92E073
:1015A0000E943E03892BA1F385EC92E00E941C036C
:1015B0008831910511F04B9759F782E090E005C012
:1015C000409709F49FC183E090E00E94930540CECC
:1015D00069817A818B819C810E94190481113BC0B1
:1015E00010E000E064E0E62EF12C0E9462020E940E
:1015F0001904B501A4010E2C04C0440F551F661F29
:10160000771F0A94D2F7882309F43EC0042B152BC8
:101610004FEFE41AF40A88E0E816F10431F70E946B
:1016200062020E941904811134C00BEF1FEFC80140
:101630000E94A90681110CCEC11005C062E085ECA4
:1016400092E00E947603C80117FF02C090E080E09C
:101650000E947305CD2C0E9462021B012C01CE0159
:1016600001960E949D04182F0E946202621973095C
:1016700084099509112309F451C16131774281052B
:10168000910508F4A5CFCACE4095509504231523A3
:10169000BFCF0E9462020E9419048111C6CFF12CB3
:1016A000E12C0E9462020E941904B501A4010E2CD3
:1016B00004C0440F551F661F771F0A94D2F7882372
:1016C00081F0042B152B2FEFE21AF20A44E0E41606
:1016D000F10439F70E9462020E9419048111A7CF18
:1016E000A4CF4095509504231523EDCF90E080E0E2
:1016F0006CCF0E9445069A83898397FF17C0CE015D
:1017000001960E949D0697FF0EC0919581959109C3
:101710000E9493058D819E818F3F910509F098CDA0
:101720000E94A00595CD90E080E0F2CF0E948E054A
:1017300089819A81382F292F97FF02C030E020E05D
:1017400010927E0210927D021092800210927F020F
:10175000813491050CF4C7C090E480E09093C102FD
:101760008093C2021092C4021092C30230937B0293
:1017700020937C020E94D6068C0181304FEF9407A3
:1017800049F20E94A9068111C5CF17FF02C010E0DF
:1017900000E0F02E60E089E00E94F80160E088E05F
:1017A0000E94F80160E083E00E94F80160E086E0BA
:1017B0000E94F80160E087E00E94F80183E290E077
:1017C0000197F1F761E089E00E94260261E088E07C
:1017D0000E94260261E083E00E94260261E086E02A
:1017E0000E942602602F617089E00E94F801B80112
:1017F00075956795617088E00E94F801B80175954C
:10180000679575956795617083E00E94F801B8014E
:1018100053E0759567955A95E1F7617086E00E94EF
:10182000F80161E087E00E94F80180E197E20E9400
:10183000B302882309F459C060E087E00E94F801F0
:10184000C3010197F1F70E949302882309F44DC068
:10185000B80184E0759567958A95E1F7617089E034
:101860000E94F801B80195E0759567959A95E1F7A2
:10187000617088E00E94F80126E0159507952A9589
:10188000E1F7602F617083E00E94F8016F2D661F01
:101890006627661F86E00E94F80161E087E00E94EB
:1018A000F80180E197E20E94B3028823F1F060E042
:1018B00087E00E94F801C3010197F1F70E949302AB
:1018C000882399F060E089E00E94260260E088E0C9
:1018D0000E94260260E083E00E94260260E086E02B
:1018E0000E94260247CFC90139CF81E090E010CF96
:1018F0000FE410E020CD00E310E01DCD0E94EB04CA
:1019000097FF5ECE19821A821B821C82CE0101963D
:101910000E949D04D82EC12C81115ACE81E090E006
:1019200054CEE5ECF2E01382128288EE93E0A0E060
:10193000B0E084839583A683B78384E092E09183AB
:10194000808385EC90E09587848784EC90E097878E
:10195000868780EC90E0918B808B81EC90E0938B7C
:10196000828B82EC90E0958B848B86EC90E0978B59
:10197000868B118E128E138E148E0895EE0FFF1F1C
:10198000881F8BBF0790F691E02D1994FB01DC01B5
:1019900002C001900D9241505040D8F70895F8943C
:0219A000FFCF77
:1019A200000000007603E0020D03C8033E031C039F
:1019B2003003536861727020416E6475696E6F20E6
:0E19C20044726976657220002E000D0A000046
:00000001FF
