:100000000C9435010C9466010C9466010C94660105
:100010000C9466010C9466010C9466010C946601C4
:100020000C9466010C9466010C9466010C946601B4
:100030000C9466010C9466010C9466010C946601A4
:100040000C9466010C9466010C9466010C94660194
:100050000C9466010C9466010C9466010C94BC0629
:100060000C9466010C9430070C9406070C946601FE
:100070000C9466010C9466010C9466010C94660164
:100080000C9466010C9466010C9466010C94660154
:100090000C9466010C9466010C9466010C94660144
:1000A0000C9466010C9466010C9466010C94660134
:1000B0000C9466010C9466010C9466010C94660124
:1000C0000C9466010C9466010C9466010C94660114
:1000D0000C9466010C9466010C9466010C94660104
:1000E0000C9466010C94D5020C94C6010C949401F6
:1000F0000C9498010C94AF010C949B010C94C701D3
:100100000C9425030C94B3010C9486010C94A1016A
:100110000C94BD010C948C010C94C1010C94BD0392
:100120000C9411030C94A5010C9402030C946B0322
:100130000C94CB010C94CE0C0C9490010C943303D2
:100140000C94AB010C94B90100002100240027009D
:100150002A002D00300033000101000004010701D6
:100160000A0100002200250028002B002E0031008B
:10017000340002010000050108010B01000020000D
:100180002300260029002C002F003200000100006F
:10019000030106010901050505050705080808080A
:1001A000020202020A0A080804040404010101010F
:1001B000010101010303030303030303040707070A
:1001C0000C0C0C0C0C0C0C0C0202020206060606AF
:1001D000060606060B0B0B0B0B0B0B0B010210207C
:1001E000200808102040102040800201020108046D
:1001F0000201010204081020408080402010080401
:100200000201800402018040201008040201080459
:10021000020101020408102040800102040810209D
:10022000408000000A0B02090C0D0E0807030401B0
:1002300000000000000000000000000000000000BE
:10024000000000000000000000000000000012118B
:10025000100000000000000000000000000000008E
:100260000000000000000000CE0C11241FBECFEFE4
:10027000D1E2DEBFCDBF00E00CBF12E0A0E0B2E0F3
:10028000ECE1FAE100E00BBF02C007900D92AE3244
:10029000B107D9F723E0AEE2B2E001C01D92A23669
:1002A000B207E1F711E0C5E3D1E000E006C0219715
:1002B0000109802FFE010E94FB0CC433D10780E0AE
:1002C0000807A9F70E9466070C940C0D0C94000017
:1002D0008150823108F05AC0E82FF0E08827EC58AE
:1002E000FE4F8F4F0C94FB0C9401980186018C01FA
:1002F0009001C6019B01A101A501AB01AF01B301B2
:10030000B901BD01C601C101C701CB0180918000C7
:100310008F77809380000895809180008F7DF9CF42
:1003200080918000877FF5CF84B58F7784BD089555
:1003300084B58F7DFBCF8091B0008F778093B00024
:1003400008958091B0008F7DF9CF809190008F77D4
:10035000809390000895809190008F7DF9CF8091D7
:100360009000877FF5CF8091A0008F778093A000C9
:1003700008958091A0008F7DF9CF8091A000877FA4
:10038000F5CF809120018F7780932001089580918F
:1003900020018F7DF9CF80912001877FF5CFCF930A
:1003A000DF93282F30E0F901EE5DFD4F8491F901D4
:1003B000E452FE4FD491F901EA56FE4FC491CC238A
:1003C000A1F081110E946801EC2FF0E0EE0FFF1FF9
:1003D000E458FE4FA591B491EC91ED2381E090E0BB
:1003E00009F480E0DF91CF91089580E090E0FACFAA
:1003F0001F93CF93DF93282F30E0F901EE5DFD4F7F
:100400008491F901E452FE4FD491F901EA56FE4F6E
:10041000C491CC23A9F0162F81110E946801EC2F02
:10042000F0E0EE0FFF1FEE59FE4FA591B4918FB78C
:10043000F894EC91111108C0D095DE23DC938FBFA6
:10044000DF91CF911F910895DE2BF8CFCF93DF93EB
:1004500090E0FC01E452FE4F24918A569E4FFC012D
:1004600084918823D1F090E0880F991FFC01E85B0C
:10047000FE4FA591B491FC01EE59FE4FC591D49168
:1004800061110EC09FB7F8948C91E22FE0958E23F6
:100490008C932881E223E8839FBFDF91CF91089559
:1004A0008FB7F894EC91E22BEC938FBFF6CF3FB768
:1004B000F8948091C1029091C202A091C302B091C0
:1004C000C40226B5A89B05C02F3F19F00196A11DB7
:1004D000B11D3FBFBA2FA92F982F8827BC01CD018E
:1004E000620F711D811D911D42E0660F771F881FED
:1004F000991F4A95D1F708952FB7F8946091BD02DE
:100500007091BE028091BF029091C0022FBF0895EA
:10051000CF92DF92EF92FF920E947C026B017C01EE
:1005200082E00E94CF01892B89F00E947C026C1925
:100530007D098E099F09613177428105910580F31C
:1005400080E0FF90EF90DF90CF90089581E0F9CFA9
:100550008F929F92AF92BF92CF92DF92EF92FF92D3
:100560006C010E947C024B015C010D2C000CEE081A
:10057000FF0882E00E94CF01892BA9F40E947C022F
:10058000681979098A099B09C616D706E806F9068B
:1005900080F780E0FF90EF90DF90CF90BF90AF901A
:1005A0009F908F90089581E0F5CFAF92BF92CF9248
:1005B000DF92EF92FF920F931F93CF93DF936C0123
:1005C0007B018B01040F151FEB015E01AE18BF0804
:1005D000C017D10759F06991D601ED91FC910190B6
:1005E000F081E02DC6011995892B79F7C501DF91BE
:1005F000CF911F910F91FF90EF90DF90CF90BF9020
:10060000AF900895FC01538D448D252F30E0842F49
:1006100090E0821B930B541710F0CF96089501972A
:100620000895FC01918D828D981761F0A28DAE0F17
:10063000BF2FB11D5D968C91928D9F5F9F73928F9E
:1006400090E008958FEF9FEF0895FC01918D828DCA
:10065000981731F0828DE80FF11D858D90E0089597
:100660008FEF9FEF0895FC01918D228D892F90E0EF
:10067000805C9F4F821B91098F739927089585ECA9
:1006800092E00E94330321E0892B09F420E0822FBD
:100690000895FC01A48DA80FB92FB11DA35ABF4F17
:1006A0002C91848D90E001968F739927848FA68971
:1006B000B7892C93A089B1898C91837080648C93C5
:1006C000938D848D981306C00288F389E02D808174
:1006D0008F7D80830895EF92FF920F931F93CF93A6
:1006E000DF93EC0181E0888F9B8D8C8D98131AC06D
:1006F000E889F989808185FF15C09FB7F894EE8954
:10070000FF896083E889F9898081837080648083B0
:100710009FBF81E090E0DF91CF911F910F91FF90FB
:10072000EF900895F62E0B8D10E00F5F1F4F0F73A3
:100730001127E02E8C8D8E110CC00FB607FCFACF5E
:10074000E889F989808185FFF5CFCE010E944903B0
:10075000F1CFEB8DEC0FFD2FF11DE35AFF4FF0822F
:100760009FB7F8940B8FEA89FB8980818062CFCF95
:10077000682F85EC92E00C946B03CF93DF93EC0130
:10078000888D8823B9F0AA89BB89E889F9898C9179
:1007900085FD03C0808186FD0DC00FB607FCF7CF35
:1007A0008C9185FFF2CF808185FFEDCFCE010E9435
:1007B0004903E9CFDF91CF91089580E090E0892B44
:1007C00029F00E943F0381110E94000080E090E028
:1007D000892B49F080E090E0892B29F00E940000ED
:1007E00081110E94000080E090E0892B49F080E0B8
:1007F00090E0892B29F00E94000081110E940000E6
:1008000080E090E0892B49F080E090E0892B29F08E
:100810000E94000081110C9400000895CF92DF9295
:10082000EF92FF920F931F93CF93DF936B017C01A5
:10083000D0E0C0E010E000E00E9457026C197D0992
:100840008E099F09603D77408105910548F485E058
:100850000E94CF010817190709F021968C01ECCFEF
:1008600081E02C970CF480E0DF91CF911F910F91E4
:10087000FF90EF90DF90CF900895CF93DF93EC013E
:1008800061E084E00E94F801CC0FDD1FCC0FDD1F7A
:100890002597CE010197F1F760E084E00E94F8010E
:1008A0002197F1F7DF91CF9108958AEF90E00E94B0
:1008B0003D048AEF90E00E943D048AEF90E00E94A0
:1008C0003D048AEF90E00C943D04CF93DF9388239E
:1008D00059F0C8E0D0E08DE790E00E943D042197F8
:1008E000D1F7DF91CF910895DF91CF910C9455040A
:1008F0008F929F92AF92BF92CF92DF92EF92FF9230
:100900006C010E947C024B015C010D2C000CEE0876
:10091000FF0885E00E94CF01892BA9F40E947C0288
:10092000681979098A099B09C616D706E806F906E7
:1009300080F780E0FF90EF90DF90CF90BF90AF9076
:100940009F908F90089581E0F5CFCF92DF92EF9244
:10095000FF920F931F93CF938C0120E137E2C901DF
:100960000E9478048823D9F00E945702F80160831E
:100970007183828393830E947C026B017C0185E0FA
:100980000E94CF01892B69F00E947C026C197D09BD
:100990008E099F09693E73408105910580F3C0E08F
:1009A00019C088EE93E00E947804C82F8823B9F319
:1009B0000E94570228EE33E0F801C080D180E28027
:1009C000F3806C197D098E099F096E307140810595
:1009D000910528F28C2FCF911F910F91FF90EF90EE
:1009E000DF90CF900895CF92DF92EF92FF920F9316
:1009F0001F93CF93DF9383EC90E00197F1F710E022
:100A000000E0D0E0C0E083ECC82ED12C93E5E92EC5
:100A100092E0F92E61E087E00E94F80182E390E025
:100A20000E94A80281110BC08FEF9FEFDF91CF9141
:100A30001F910F91FF90EF90DF90CF900895C60126
:100A40000197F1F783E00E94CF01002E02C0880FCA
:100A5000991F0A94E2F7C82BD92B60E087E00E9427
:100A6000F8010E9488028823F9F2C7010197F1F783
:100A70000F5F1F4F0830110569F6CE01D7CFCF9316
:100A8000DF93EC018731910574F4853191052CF4E5
:100A90008330910511F0409741F460E185EC92E0DC
:100AA0000E946B0302C04897C1F3CE01DF91CF9142
:100AB0000C94B80366E085EC92E00C946B03CF9342
:100AC000DF93EC0165E185EC92E00E946B03CE01BF
:100AD000DF91CF910C94B803CF92DF92EF92FF9207
:100AE0000F931F93CF93DF9361E085EC92E00E9418
:100AF0006B0388E090E00E94B80362E085EC92E02E
:100B00000E946B030E9457026B017C010BE811E00D
:100B100082E00E94CF01892BC1F40E9457026C1918
:100B20007D098E099F096135734C8105910580F31C
:100B300063E085EC92E0DF91CF911F910F91FF90E0
:100B4000EF90DF90CF900C946B0361E087E00E9400
:100B5000F80189E00E94CF0131E020E0892B09F4FF
:100B600030E0C32FD22F88E00E94CF01892B09F0FB
:100B7000C26083E00E94CF01892B09F0C46086E047
:100B80000E94CF01892B09F0C8600E948802811160
:100B90000CC081E090E0DF91CF911F910F91FF9009
:100BA000EF90DF90CF900C945F05C8010197F1F7AB
:100BB00060E087E00E94F80180E197E20E94A802CD
:100BC000882339F361E087E00E94F80189E00E9400
:100BD000CF01892B09F0C06188E00E94CF01892BE9
:100BE00009F0C06283E00E94CF01892B09F0C06444
:100BF00086E00E94CF01892B09F0C0680E9488021C
:100C0000882339F2C8010197F1F760E087E00E947C
:100C1000F8010E9457026B017C01CE010E943F0542
:100C200077CFCF92DF92EF92FF92CF93DF930E9424
:100C30007C026B017C0185EC92E00E9433030297F9
:100C4000A4F40E947C026C197D098E099F09613D04
:100C500077408105910578F38FEF9FEFDF91CF917A
:100C6000FF90EF90DF90CF90089585EC92E00E9486
:100C70001103EC0185EC92E00E94110320E0382F73
:100C8000C9018C2B9D2BEACFCF92DF92EF92FF927E
:100C90000E947C026B017C0185EC92E00E94330390
:100CA000892B91F40E947C026C197D098E099F09A1
:100CB000613D77408105910578F38FEF9FEFFF90BD
:100CC000EF90DF90CF90089585EC92E00E941103A1
:100CD000F6CFFC018081918197FF03C091958195AA
:100CE00091099195819591090895CF93DF931F9272
:100CF0001F92CDB7DEB79A83898397FF14C0CE01C8
:100D000001960E94690697FF0BC091958195910904
:100D10000E945F0581E00F900F90DF91CF910895C1
:100D200090E080E0F5CF80E0F6CFFC01019000205C
:100D3000E9F73197AF01481B590BBC0185EC92E0F4
:100D40000C94D502CF93DF93CDB7DEB7A1970FB642
:100D5000F894DEBF0FBECDBF19A2805D88A3CE017F
:100D600080960E949506A1960FB6F894DEBF0FBE3E
:100D7000CDBFDF91CF9108951F920F920FB60F92C2
:100D800011242F933F938F939F93AF93BF938091A1
:100D9000BD029091BE02A091BF02B091C0023091FD
:100DA000BC0223E0230F2D3758F50196A11DB11D7C
:100DB0002093BC028093BD029093BE02A093BF0219
:100DC000B093C0028091C1029091C202A091C3026F
:100DD000B091C4020196A11DB11D8093C1029093F0
:100DE000C202A093C302B093C402BF91AF919F917E
:100DF0008F913F912F910F900FBE0F901F901895DC
:100E000026E8230F0296A11DB11DD2CF1F920F928B
:100E10000FB60F9211240BB60F922F933F934F935F
:100E20005F936F937F938F939F93AF93BF93EF9352
:100E3000FF9385EC92E00E944903FF91EF91BF91EF
:100E4000AF919F918F917F916F915F914F913F9162
:100E50002F910F900BBE0F900FBE0F901F90189503
:100E60001F920F920FB60F9211240BB60F922F9371
:100E70008F939F93EF93FF93E091D502F091D60269
:100E80008081E091DB02F091DC0282FD1DC0908147
:100E90008091DE028F5F8F732091DF02821741F015
:100EA000E091DE02F0E0EB53FD4F958F8093DE0280
:100EB000FF91EF919F918F912F910F900BBE0F900B
:100EC0000FBE0F901F9018958081F2CFCF93DF93C4
:100ED00000D000D000D0CDB7DEB7789484B5826062
:100EE00084BD84B5816084BD85B5826085BD85B5CE
:100EF000816085BD80916E00816080936E0010924C
:100F000081008091810082608093810080918100C6
:100F10008160809381008091800081608093800057
:100F20008091B10084608093B1008091B0008160B5
:100F30008093B000809191008260809391008091B5
:100F400091008160809391008091900081608093F6
:100F500090008091A10082608093A1008091A10007
:100F600081608093A1008091A00081608093A000A7
:100F70008091210182608093210180912101816013
:100F800080932101809120018160809320018091D4
:100F90007A00846080937A0080917A0082608093E6
:100FA0007A0080917A00816080937A0080917A0043
:100FB000806880937A001092C100E091D502F09190
:100FC000D60282E08083E091D102F091D2021082B9
:100FD000E091D302F091D40280E180831092DD028F
:100FE000E091D902F091DA0286E08083E091D702A5
:100FF000F091D802808180618083E091D702F091E6
:10100000D802808188608083E091D702F091D80275
:10101000808180688083E091D702F091D80280813E
:101020008F7D808361E087E00E94260260E085E09A
:101030000E94260260E083E00E94260260E082E0D7
:101040000E94260261E084E00E94260260E086E0C1
:101050000E94260260E088E00E94260260E089E0AB
:101060000E94260261E08DE00E94260243E2242EC7
:10107000312C812C912C5401839485EC92E00E94B8
:101080003303892B41F185EC92E00E94110366E164
:101090008631910509F40DC10197E9F40E944406D7
:1010A00098878F8397FF0AC0CE0107960E94690632
:1010B00097FFE6C291958195910951C286309105BD
:1010C00009F4FCC00CF0B5C08130910509F4C4C02E
:1010D000029709F4BEC085E00E94CF018C01892BE4
:1010E00059F10E94F3047C0197FD26C00F970297E7
:1010F00028F0C7018B7F81349105F1F461E087E02E
:101100000E94F8018BE99CE80197F1F760E087E025
:101110000E94F80161E085EC92E00E946B0383E09D
:1011200090E00E94B803C7010E94B803F1E4EF16F3
:10113000F10411F40E946C0582E00E94CF01892B1A
:1011400009F44BC00115110509F047C0F12CE12C41
:1011500083EC682E712C80E197E20E94A80288231C
:1011600009F43BC0C3010197F1F783E00E94CF016E
:101170006C0161E087E00E94F8010E9488028823E8
:1011800061F1C3010197F1F760E087E00E94F80187
:101190000E2C02C0CC0CDD1C0A94E2F70C291D2990
:1011A0002FEFE21AF20A48E0E416F104A1F6003348
:1011B000110509F4DAC3003F110509F4D9C317FD7D
:1011C0000CC061E085EC92E00E946B0384E090E04B
:1011D0000E94B803C8010E94B8030E947C020091DB
:1011E000B8021091B9022091BA023091BB026B0192
:1011F0007C01C01AD10AE20AF30A97018601083E6F
:1012000013402105310590F06093B8027093B90244
:101210008093BA029093BB028DE00E94CF0161E0FF
:10122000892B09F060E08DE00E94F8010E94DD0347
:1012300024CF8730910509F473C1089709F04BCF8B
:101240000E9444069E838D8397FF1DC2CE010596A2
:101250002DCF0E945A053FCF61E085EC92E00E94BD
:101260006B0361E085EC92E00E946B0363E085EC28
:1012700092E00E946B0380E490E00E94B80362E079
:1012800085EC92E00E946B0382E192E00E94950659
:1012900081E090E00E94A20688E292E00E9495061A
:1012A00083E090E00E94A2068AE292E00E94950606
:1012B00063E085EC92E00E946B030DCF0E94110663
:1012C0008C010E947506811106CF902F812F17FF88
:1012D00002C090E080E01092B7021092B602109225
:1012E000B5021092B40230E420E0013411050CF490
:1012F0009C013093B2022093B3021092B10210927B
:10130000B0029093AE028093AF020E9444067C012B
:101310000E94750689878111DECE8701F7FE02C023
:1013200010E000E00E945A050E947C022B013C0163
:10133000C090AE02D090AF021C141D04CCF02091DE
:10134000B4023091B5028091B6029091B70228178D
:1013500039070CF468C0F89481E00E94650481E0CC
:101360000E946504789460E08DE00E94F801B3CE9D
:10137000E090B202F090B3028091B0029091B1027D
:101380008E159F0564F585EC92E00E9433031816D4
:101390001906A4F485EC92E00E9411032091B0029A
:1013A0003091B102A9014F5F5F4F5093B10240935A
:1013B000B00222593D4FF9018083E5CFC101019769
:1013C000F1F70E947C02641975098609970969384A
:1013D00073418105910560F28FEF9FEF26C0CE1813
:1013E000DF08D092AF02C092AE02A7016EE672E0B3
:1013F0008EE292E00E94030DF092B702E092B602F4
:101400001092B5021092B40221E4C216D1041CF06D
:1014100030E4C32ED12CD092B302C092B20210920B
:10142000B1021092B00290E080E00E947506811136
:1014300052CEF8948091B4029091B5022091B602F8
:101440003091B7028217930714F078946BCF9C0108
:101450002F5F3F4F3093B5022093B402825D9D4FC2
:10146000FC01E080F12CC984CC2009F44AC00E9420
:10147000550424E0C22ED12CC7010C2C02C0959536
:1014800087950A94E2F781700E9465044FEFC41AB1
:10149000D40A88E0C816D10479F781E00E94650477
:1014A0000E945504D12CC12CC7010C2C02C095956B
:1014B00087950A94E2F781700E946504EFEFCE1AD7
:1014C000DE0AF4E0CF16D10479F785E0C82ED12CDE
:1014D0000115110519F4B2E0CB2ED12CF12CE12C21
:1014E00081E00E9465042FEFE21AF20ACE14DF04B5
:1014F000B9F70115110511F00150110941E04987B3
:1015000099CF61E08DE00E94F8019AEFC92ED12CAD
:1015100081E00E94650421E0C21AD108C9F7A7CF73
:101520000E945A0585E00E94CF01892B09F023C251
:1015300085EC92E00E943303892BA1F385EC92E0C5
:101540000E9411038831910511F04B9759F782E001
:1015500090E005C0409709F412C283E090E00E9439
:101560005F05B9CD69817A818B819C810E940E04CF
:1015700081113BC010E000E0A4E0EA2EF12C0E94B3
:1015800057020E940E04B501A4010E2C04C0440FA2
:10159000551F661F771F0A94D2F7882309F43EC0AF
:1015A000042B152B4FEFE41AF40A88E0E816F10437
:1015B00031F70E9457020E940E04811134C00BEFD4
:1015C0001FEFC8010E947506811185CDC11005C0AD
:1015D00062E085EC92E00E946B03C80117FF02C035
:1015E00090E080E00E943F05CD2C0E9457022B0125
:1015F0003C01CE0101960E94A504182F0E945702BB
:101600006419750986099709112309F4C4C1613168
:1016100077428105910508F4A5CF4ACE40955095B3
:1016200004231523BFCF0E9457020E940E0481118C
:10163000C6CFF12CE12C0E9457020E940E04B50186
:10164000A4010E2C04C0440F551F661F771F0A9477
:10165000D2F7882381F0042B152BEFEFEE1AFE0A48
:10166000F4E0EF16F10439F70E9457020E940E04CD
:101670008111A7CFA4CF4095509504231523EDCF1A
:1016800090E080E06CCF0E9411069A83898397FFD7
:101690000FC0CE0101960E94690697FF06C0919582
:1016A000819591090E945F05A3C090E080E0FACF88
:1016B0000E945A0589819A81382F292F97FF02C0ED
:1016C00030E020E01092B7021092B6021092B502FC
:1016D0001092B40281349105ACF190E480E09093D3
:1016E000B2028093B3021092B1021092B002309312
:1016F000AE022093AF02F3ECEF2EF12C0E947C029D
:1017000085EC92E00E9433030091B0021091B10287
:101710002091B2023091B30218161906ACF40217E8
:10172000130794F485EC92E00E94110398012F5F57
:101730003F4F3093B1022093B002F801E259FD4FC0
:101740008083DECFC901CBCF02171307A1F520910B
:10175000B4023091B5028091B6029091B702281779
:10176000390749F5C090AE02D090AF02C01AD10A35
:10177000D092AF02C092AE02A8016EE672E08EE295
:1017800092E00E94030D1093B7020093B6021092EC
:10179000B5021092B402C6018134910514F080E4C0
:1017A00090E09093B3028093B2021092B102109233
:1017B000B0020E945A058091B4029091B502209126
:1017C000B6023091B70282179307DCF49C012F5FB9
:1017D0003F4F3093B5022093B402825D9D4FFC01D0
:1017E000D0800D2D10E0C8010E947506882391F06D
:1017F0008D819E818F3F910509F06DCC0E946C0513
:101800006ACC8091AE029091AF02181619060CF4C2
:1018100077CFEECF60E089E00E94F80160E088E0D9
:101820000E94F80160E083E00E94F80160E086E039
:101830000E94F80160E087E00E94F801C101019771
:10184000F1F761E089E00E94260261E088E00E94F1
:10185000260261E083E00E94260261E086E00E94A9
:1018600026026D2D617089E00E94F801B80175951E
:101870006795617088E00E94F801B80175956795D9
:1018800075956795617083E00E94F801B801E3E007
:1018900075956795EA95E1F7617086E00E94F80119
:1018A00061E087E00E94F80180E197E20E94A802CF
:1018B000882309F457C060E087E00E94F801C7015F
:1018C0000197F1F70E948802882309F44BC0B80100
:1018D00094E0759567959A95E1F7617089E00E94AB
:1018E000F801B80125E0759567952A95E1F76170D3
:1018F00088E00E94F80136E0159507953A95E1F7E2
:10190000602F617083E00E94F8016D2D661F6627CD
:10191000661F86E00E94F80161E087E00E94F801FE
:1019200080E197E20E94A8028823E1F060E087E06E
:101930000E94F801C7010197F1F70E9488028823ED
:1019400089F060E089E00E94260260E088E00E9461
:10195000260260E083E00E94260260E086E00E94AA
:101960002602CCCE81E090E09DCE0FE410E029CCA1
:1019700000E310E026CC0E94F30497FFEBCD198220
:101980001A821B821C82CE0101960E94A504D82EC9
:10199000C12C8111E7CD81E090E0E1CDE5ECF2E0F2
:1019A0001382128288EE93E0A0E0B0E084839583F6
:1019B000A683B78384E092E09183808385EC90E0F6
:1019C0009587848784EC90E09787868780EC90E009
:1019D000918B808B81EC90E0938B828B82EC90E0FA
:1019E000958B848B86EC90E0978B868B118E128E74
:1019F000138E148E0895EE0FFF1F881F8BBF079064
:101A0000F691E02D1994FB01DC0102C001900D92CA
:0C1A100041505040D8F70895F894FFCFE3
:101A1C00000000006B03D5020203BD033303110366
:101A2C00250353686172702041726475696E6F2072
:0E1A3C0044726976657220002E000D0A0000CB
:00000001FF
