:100000000C9403010C942D010C942D010C942D01E2
:100010000C942D010C942D010C942D010C942D01A8
:100020000C942D010C942D010C942D010C942D0198
:100030000C942D010C942D010C942D010C942D0188
:100040000C942D010C942D010C942D010C942D0178
:100050000C942D010C942D010C942D010C94380757
:100060000C942D010C94AC070C9482070C942D0178
:100070000C942D010C942D010C942D010C942D0148
:100080000C942D010C942D010C942D010C942D0138
:100090000C942D010C942D010C942D010C942D0128
:1000A0000C942D010C942D010C942D010C942D0118
:1000B0000C942D010C942D010C942D010C942D0108
:1000C0000C942D010C942D010C942D010C942D01F8
:1000D0000C942D010C942D010C942D010C942D01E8
:1000E0000C942D0100002100240027002A002D007F
:1000F0003000330001010000040107010A01000083
:100100002200250028002B002E00310034000201BF
:100110000000050108010B0100002000230026005B
:1001200029002C002F00320000010000030106010D
:10013000090105050505070508080808020202026D
:100140000A0A080804040404010101010101010173
:100150000303030303030303040707070C0C0C0C3E
:100160000C0C0C0C02020202060606060606060627
:100170000B0B0B0B0B0B0B0B0102102020080810B4
:100180002040102040800201020108040201010207
:1001900004081020408080402010080402018004E0
:1001A000020180402010080402010804020101023B
:1001B0000408102040800102040810204080000044
:1001C0000A0B02090C0D0E080703040100000000D1
:1001D000000000000000000000000000000000001F
:1001E00000000000000000000000121110000000DC
:1001F00000000000000000000000000000000000FF
:1002000000000000570C11241FBECFEFD1E2DEBF6B
:10021000CDBF12E0A0E0B2E0E0E3F9E100E00BBF07
:1002200002C007900D92AE32B107D9F723E0AEE2DB
:10023000B2E001C01D92A236B207E1F711E0C3E0BF
:10024000D1E004C02197FE010E94840CC230D10786
:10025000C9F70E94E2070C94960C0C9400008150A0
:10026000823108F058C0E82FF0E0E75CFE4F0C94B4
:10027000840C59015D014B01510155018B01600155
:1002800066016A017001740178017E0182018B01AF
:1002900086018C019001809180008F77809380008F
:1002A0000895809180008F7DF9CF80918000877FB5
:1002B000F5CF84B58F7784BD089584B58F7DFBCF4E
:1002C0008091B0008F778093B00008958091B00046
:1002D0008F7DF9CF809190008F7780939000089563
:1002E000809190008F7DF9CF80919000877FF5CF2E
:1002F0008091A0008F778093A00008958091A00046
:100300008F7DF9CF8091A000877FF5CF809120016C
:100310008F77809320010895809120018F7DF9CF00
:1003200080912001877FF5CFCF93DF93282F30E096
:10033000F901E254FE4F8491F901E858FE4FD4913F
:10034000F901EE5CFE4FC491CC23A1F081110E9413
:100350002F01EC2FF0E0EE0FFF1FE85EFE4FA5919E
:10036000B491EC91ED2381E090E009F480E0DF911D
:10037000CF91089580E090E0FACF1F93CF93DF9361
:10038000282F30E0F901E254FE4F8491F901E8583A
:10039000FE4FD491F901EE5CFE4FC491CC23A9F03D
:1003A000162F81110E942F01EC2FF0E0EE0FFF1F9E
:1003B000E250FF4FA591B4918FB7F894EC911111D1
:1003C00008C0D095DE23DC938FBFDF91CF911F91C2
:1003D0000895DE2BF8CFCF93DF9390E0FC01E8582F
:1003E000FE4F24918E5C9E4FFC0184918823C9F0BE
:1003F00090E0880F991FFC01EC51FF4FA591B4913B
:10040000FC01E250FF4FC591D49161110DC09FB71F
:10041000F8948C91209582238C93888128232883BB
:100420009FBFDF91CF910895623051F49FB7F89448
:100430003C91822F809583238C93E8812E2BEFCFE4
:100440008FB7F894EC912E2B2C938FBFEACF3FB748
:10045000F8948091370290913802A0913902B091BE
:100460003A0226B5A89B05C02F3F19F00196A11DA1
:10047000B11D3FBFBA2FA92F982F8827BC01CD01EE
:10048000620F711D811D911D42E0660F771F881F4D
:10049000991F4A95D1F708952FB7F89460913302C8
:1004A0007091340280913502909136022FBF0895E9
:1004B000CF92DF92EF92FF920E944C026B017C017F
:1004C00082E00E949401892B89F00E944C026C19F1
:1004D0007D098E099F09613177428105910580F37D
:1004E00080E0FF90EF90DF90CF90089581E0F9CF0A
:1004F0008F929F92AF92BF92CF92DF92EF92FF9234
:100500006C010E944C024B015C010D2C000CEE08AA
:10051000FF0882E00E949401892BA9F40E944C02FA
:10052000681979098A099B09C616D706E806F906EB
:1005300080F780E0FF90EF90DF90CF90BF90AF907A
:100540009F908F90089581E0F5CFAF92BF92CF92A8
:10055000DF92EF92FF920F931F93CF93DF936C0183
:100560007B018B01040F151FEB015E01AE18BF0864
:10057000C017D10759F06991D601ED91FC91019016
:10058000F081E02DC6010995892B79F7C501DF912E
:10059000CF911F910F91FF90EF90DF90CF90BF9080
:1005A000AF900895FC01538D448D252F30E0842FAA
:1005B00090E0821B930B541710F0CF96089501978B
:1005C0000895FC01918D828D981761F0A28DAE0F78
:1005D000BF2FB11D5D968C91928D9F5F9F73928FFF
:1005E00090E008958FEF9FEF0895FC01918D828D2B
:1005F000981731F0828DE80FF11D858D90E00895F8
:100600008FEF9FEF0895FC01918D228D892F90E04F
:10061000805C9F4F821B91098F739927089585EC09
:1006200092E00E94030321E0892B09F420E0822F4D
:100630000895FC01A48DA80FB92FB11DA35ABF4F77
:100640002C91848D90E001968F739927848FA689D1
:10065000B7892C93A089B1898C91837080648C9325
:10066000938D848D981306C00288F389E02D8081D4
:100670008F7D80830895EF92FF920F931F93CF9306
:10068000DF93EC0181E0888F9B8D8C8D98131AC0CD
:10069000E889F989808185FF15C09FB7F894EE89B4
:1006A000FF896083E889F989808183708064808311
:1006B0009FBF81E090E0DF91CF911F910F91FF905C
:1006C000EF900895F62E0B8D10E00F5F1F4F0F7304
:1006D0001127E02E8C8D8E110CC00FB607FCFACFBF
:1006E000E889F989808185FFF5CFCE010E94190341
:1006F000F1CFEB8DEC0FFD2FF11DE35AFF4FF08290
:100700009FB7F8940B8FEA89FB8980818062CFCFF5
:10071000682F85EC92E00C943B03CF93DF93EC01C0
:10072000888D8823B9F0AA89BB89E889F9898C91D9
:1007300085FD03C0808186FD0DC00FB607FCF7CF95
:100740008C9185FFF2CF808185FFEDCFCE010E9495
:100750001903E9CFDF91CF91089580E090E0892BD4
:1007600029F00E940F0381110E94000080E090E0B8
:10077000892B49F080E090E0892B29F00E9400004D
:1007800081110E94000080E090E0892B49F080E018
:1007900090E0892B29F00E94000081110E94000046
:1007A00080E090E0892B49F080E090E0892B29F0EF
:1007B0000E94000081110C9400000895CF92DF92F6
:1007C000EF92FF920F931F93CF93DF936B017C0106
:1007D000D0E0C0E010E000E00E9427026C197D0923
:1007E0008E099F09603D77408105910548F485E0B9
:1007F0000E9494010817190709F021968C01ECCF8B
:1008000081E02C970CF480E0DF91CF911F910F9144
:10081000FF90EF90DF90CF900895CF93DF93EC019E
:1008200061E084E00E94BD01CC0FDD1FCC0FDD1F15
:100830002597CE010197F1F760E084E00E94BD01A9
:100840002197F1F7DF91CF9108958AEF90E00E9410
:100850000D048AEF90E00E940D048AEF90E00E9460
:100860000D048AEF90E00C940D048F929F92AF924A
:10087000BF92CF92DF92EF92FF926C010E944C02E6
:100880004B015C010D2C000CEE08FF0885E00E9476
:100890009401892BA9F40E944C02681979098A09EC
:1008A0009B09C616D706E806F90680F780E0FF9098
:1008B000EF90DF90CF90BF90AF909F908F90089572
:1008C00081E0F5CFCF92DF92EF92FF920F931F93CB
:1008D000CF938C0120E137E2C9010E9435048823BF
:1008E000D9F00E942702F801608371838283938389
:1008F0000E944C026B017C0185E00E949401892BCF
:1009000069F00E944C026C197D098E099F09693EAD
:1009100073408105910580F3C0E019C088EE93E033
:100920000E943504C82F8823B9F30E94270228EEBD
:1009300033E0F801C080D180E280F3806C197D093A
:100940008E099F096E3071408105910528F28C2F28
:10095000CF911F910F91FF90EF90DF90CF9008956E
:10096000CF92DF92EF92FF920F931F93CF93DF937B
:1009700083EC90E00197F1F710E000E0D0E0C0E0F8
:1009800083ECC82ED12C93E5E92E92E0F92E61E09C
:1009900087E00E94BD0182E390E00E94780281110D
:1009A0000BC08FEF9FEFDF91CF911F910F91FF90C1
:1009B000EF90DF90CF900895C6010197F1F783E0A3
:1009C0000E949401002E02C0880F991F0A94E2F73A
:1009D000C82BD92B60E087E00E94BD010E9458021D
:1009E0008823F9F2C7010197F1F70F5F1F4F083015
:1009F000110569F6CE01D7CFCF93DF9385EC92E056
:100A00000E94030318161906D4F4C091C302D091B2
:100A1000C4028091C1029091C202C817D9077CF428
:100A200085EC92E00E94E1029E012F5F3F4F3093E0
:100A3000C4022093C302CF57DD4F8883DFCFDF91FD
:100A4000CF910895CF93DF93C82F0E94FC04CC234D
:100A500059F0C8E0D0E08DE790E00E940D042197A6
:100A6000D1F7DF91CF910895DF91CF910C942504B8
:100A7000CF93DF93EC018731910574F485319105B3
:100A80002CF48330910511F0409741F460E185EC3E
:100A900092E00E943B0302C04897C1F3CE01DF9170
:100AA000CF910C94880366E085EC92E00C943B03B4
:100AB000CF93DF93EC0165E185EC92E00E943B036C
:100AC000CE01DF91CF910C948803CF92DF92EF9209
:100AD000FF920F931F93CF93DF9361E085EC92E039
:100AE0000E943B0388E090E00E94880362E085EC6E
:100AF00092E00E943B030E9427026B017C010BE8FD
:100B000011E082E00E949401892BC1F40E94270227
:100B10006C197D098E099F096135734C810591051A
:100B200080F363E085EC92E0DF91CF911F910F910C
:100B3000FF90EF90DF90CF900C943B0361E087E053
:100B40000E94BD0189E00E94940131E020E0892BE0
:100B500009F430E0C32FD22F88E00E949401892B42
:100B600009F0C26083E00E949401892B09F0C460FF
:100B700086E00E949401892B09F0C8600E94580207
:100B800081110CC081E090E0DF91CF911F910F9116
:100B9000FF90EF90DF90CF900C945805C80101971B
:100BA000F1F760E087E00E94BD0180E197E20E94DA
:100BB0007802882339F361E087E00E94BD0189E073
:100BC0000E949401892B09F0C06188E00E94940181
:100BD000892B09F0C06283E00E949401892B09F0FF
:100BE000C06486E00E949401892B09F0C0680E94CD
:100BF0005802882339F2C8010197F1F760E087E0D5
:100C00000E94BD010E9427026B017C01CE010E945F
:100C1000380577CFCF92DF92EF92FF92CF93DF9399
:100C20000E944C026B017C0185EC92E00E94030360
:100C30000297A4F40E944C026C197D098E099F0949
:100C4000693E73408105910578F38FEF9FEFDF9147
:100C5000CF91FF90EF90DF90CF90089585EC92E0D8
:100C60000E94E102EC0185EC92E00E94E10220E0AA
:100C7000382FC9018C2B9D2BEACFCF92DF92EF92B8
:100C8000FF920E944C026B017C0185EC92E00E9475
:100C90000303892B91F40E944C026C197D098E0983
:100CA0009F09693E73408105910578F38FEF9FEFAF
:100CB000FF90EF90DF90CF90089585EC92E00E9436
:100CC000E102F6CFFC018081918197FF03C09195ED
:100CD000819591099195819591090895CF93DF931D
:100CE00000D0CDB7DEB79A83898397FF14C0CE01B9
:100CF00001960E94620697FF0BC09195819591091C
:100D00000E94580581E00F900F90DF91CF910895D8
:100D100090E080E0F5CF80E0F6CFFC01019000206C
:100D2000E9F73197AF01481B590BBC0185EC92E004
:100D30000C94A5020F931F93CF93DF930E944C0254
:100D400085EC92E00E940303C091C302D091C402DB
:100D50000091C1021091C2021816190694F4C0172E
:100D6000D1077CF485EC92E00E94E1029E012F5FA6
:100D70003F4F3093C4022093C302CF57DD4F888387
:100D8000DFCF0C171D0799F520917D0230917E026F
:100D900080917F02909180022817390741F5C09118
:100DA0007B02D0917C02C01BD10BD0937C02C093FC
:100DB0007B02A80161E872E08BE392E00E948D0C57
:100DC00010937E0200937D021092800210927F02A7
:100DD000C134D10514F0C0E4D0E0D093C202C09376
:100DE000C1021092C4021092C3020E945305809166
:100DF0007F029091800220917D0230917E028217C5
:100E000093078CF49C012F5F3F4F30938002209317
:100E10007F02855C9D4FFC01808190E0DF91CF9146
:100E20001F910F91089580917B0290917C0218167A
:100E300019060CF485CF81E09FEFF0CFCF93DF93BD
:100E4000CDB7DEB7A1970FB6F894DEBF0FBECDBF0A
:100E500019A281E388A3CE0180960E948D06A196F7
:100E60000FB6F894DEBF0FBECDBFDF91CF910895CE
:100E70001F920F920FB60F9211242F933F938F93CF
:100E80009F93AF93BF938091330290913402A091CE
:100E90003502B09136023091320223E0230F2D3714
:100EA00058F50196A11DB11D2093320280933302A3
:100EB00090933402A0933502B093360280913702AA
:100EC00090913802A0913902B0913A020196A11D89
:100ED000B11D8093370290933802A0933902B093EA
:100EE0003A02BF91AF919F918F913F912F910F90B7
:100EF0000FBE0F901F90189526E8230F0296A11D94
:100F0000B11DD2CF1F920F920FB60F9211240BB6C4
:100F10000F922F933F934F935F936F937F938F9392
:100F20009F93AF93BF93EF93FF9385EC92E00E9462
:100F30001903FF91EF91BF91AF919F918F917F9195
:100F40006F915F914F913F912F910F900BBE0F903A
:100F50000FBE0F901F9018951F920F920FB60F9211
:100F600011240BB60F922F938F939F93EF93FF93C0
:100F7000E091D502F091D6028081E091DB02F09100
:100F8000DC0282FD1DC090818091DE028F5F8F7335
:100F90002091DF02821741F0E091DE02F0E0EB5396
:100FA000FD4F958F8093DE02FF91EF919F918F917E
:100FB0002F910F900BBE0F900FBE0F901F901895A2
:100FC0008081F2CFCF93DF93CDB7DEB728970FB6EE
:100FD000F894DEBF0FBECDBF789484B5826084BD27
:100FE00084B5816084BD85B5826085BD85B581602D
:100FF00085BD80916E00816080936E0010928100AB
:101000008091810082608093810080918100816065
:101010008093810080918000816080938000809126
:10102000B10084608093B1008091B00081608093B2
:10103000B000809191008260809391008091910036
:1010400081608093910080919000816080939000F6
:101050008091A10082608093A1008091A1008160B5
:101060008093A1008091A00081608093A000809176
:101070002101826080932101809121018160809310
:1010800021018091200181608093200180917A006C
:10109000846080937A0080917A00826080937A00E5
:1010A00080917A00816080937A0080917A008068D4
:1010B00080937A001092C100E091D502F091D6029F
:1010C00082E08083E091D102F091D2021082E0911F
:1010D000D302F091D40280E180831092DD02E0918E
:1010E000D902F091DA0286E08083E091D702F09194
:1010F000D802808180618083E091D702F091D8028C
:10110000808188608083E091D702F091D80280814D
:1011100080688083E091D702F091D80280818F7D32
:10112000808361E087E00E94EB0160E085E00E943F
:10113000EB0160E083E00E94EB0160E082E00E944E
:10114000EB0161E084E00E94EB0160E086E00E9438
:10115000EB0160E088E00E94EB0160E089E00E9422
:10116000EB0161E08DE00E94EB0162E08EE00E9405
:10117000EB01812C912C5401839413EC612E712C82
:1011800085EC92E00E940303892B41F185EC92E00B
:101190000E94E10266E18631910509F406C10197DA
:1011A000E9F40E943D0698878F8397FF0AC0CE011D
:1011B00007960E94620697FF5FC2919581959109FB
:1011C000CAC18630910509F4F5C00CF0B2C0813077
:1011D000910509F4C1C0029709F4BBC085E00E94E3
:1011E00094018C01892B59F10E94B0047C0197FD78
:1011F00026C00F97029728F0C7018B7F8134910595
:10120000F1F461E087E00E94BD018BE99CE8019761
:10121000F1F760E087E00E94BD0161E085EC92E0BB
:101220000E943B0383E090E00E948803C7010E9474
:10123000880381E4E816F10411F40E94650582E058
:101240000E949401892B09F448C00115110509F089
:1012500044C0D12CC12C80E197E20E9478028823FF
:1012600009F43BC0C3010197F1F783E00E949401A8
:101270007C0161E087E00E94BD010E945802882342
:1012800061F1C3010197F1F760E087E00E94BD01C1
:101290000C2C02C0EE0CFF1C0A94E2F70E291F2949
:1012A0002FEFC21AD20A48E0C416D104A1F60033C7
:1012B000110509F4E3C2003F110509F4E2C217FD6C
:1012C0000CC061E085EC92E00E943B0384E090E07A
:1012D0000E948803C8010E9488030E944C0200916A
:1012E0002E0210912F0220913002309131026B01B9
:1012F0007C01C01AD10AE20AF30A97018601083E6E
:1013000013402105310590F060932E0270932F0257
:1013100080933002909331028DE00E94940161E04D
:10132000892B09F060E08DE00E94BD010E94AD03B1
:1013300027CF8730910509F4EFC0089709F04ECF09
:101340000E943D069E838D8397FF99C1CE0105962D
:1013500030CF0E94530542CF61E085EC92E00E94BD
:101360003B0361E085EC92E00E943B0361E085EC89
:1013700092E00E943B0380E490E00E94880362E0D8
:1013800085EC92E00E943B0382E192E00E948D0690
:101390000E941E0788E292E00E948D060E941E07AE
:1013A0008AE292E00E948D0663E085EC92E00E9462
:1013B0003B0314CF0E940A068C010E946E06811125
:1013C0000DCF902F812F17FF02C090E080E0109288
:1013D0007E0210927D021092800210927F0230E411
:1013E00020E0013411050CF49C013093C1022093DC
:1013F000C2021092C4021092C30290937B028093A7
:101400007C020E943D067C010E946E06D82E81114E
:10141000E5CE8701F7FE02C010E000E00E94530510
:101420000E949A067C0181302FEF920759F481E0E7
:101430000E94220581E00E94220560E08DE00E946A
:10144000BD01CCCE0E946E068111C8CEDD2009F40C
:1014500054C0F7FE02C0F12CE12C0E94FC040E9453
:101460002504A4E0CA2ED12C27015524C2010C2C3E
:1014700002C0959587950A94E2F781700E94220533
:101480008FEFC81AD80A28E0C216D10479F781E094
:101490000E9422050E94FC040E942504F12CE12CEC
:1014A000C2010E2C02C0959587950A94E2F78170CF
:1014B0000E9422054FEFE41AF40A84E0E816F104D2
:1014C00079F7E5E0CE2ED12C0115110519F472E063
:1014D000C72ED12CF12CE12C81E00E9422052FEFA8
:1014E000E21AF20ACE14DF04B9F70115110511F062
:1014F00001501109DD24D39493CF61E08DE00E9467
:10150000BD01FAEFCF2ED12C81E00E94220541E0EF
:10151000C41AD108C9F79DCF0E94530585E00E94E7
:101520009401892B09F0B0C185EC92E00E9403037D
:10153000892BA1F385EC92E00E94E10288319105AC
:1015400011F04B9759F782E090E005C0409709F4FD
:101550009FC183E090E00E94580540CE69817A8166
:101560008B819C810E94DE0381113BC010E000E072
:1015700064E0E62EF12C0E9427020E94DE03B501F2
:10158000A4010E2C04C0440F551F661F771F0A9438
:10159000D2F7882309F43EC0042B152B4FEFE41A31
:1015A000F40A88E0E816F10431F70E9427020E944D
:1015B000DE03811134C00BEF1FEFC8010E946E06DD
:1015C00081110CCEC11005C062E085EC92E00E9452
:1015D0003B03C80117FF02C090E080E00E9438057D
:1015E000CD2C0E9427021B012C01CE0101960E94E6
:1015F0006204182F0E942702621973098409950951
:10160000112309F451C1613177428105910508F434
:10161000A5CFCACE4095509504231523BFCF0E9475
:1016200027020E94DE038111C6CFF12CE12C0E941B
:1016300027020E94DE03B501A4010E2C04C0440F52
:10164000551F661F771F0A94D2F7882381F0042B59
:10165000152B2FEFE21AF20A44E0E416F10439F7F1
:101660000E9427020E94DE038111A7CFA4CF4095DC
:10167000509504231523EDCF90E080E06CCF0E94BD
:101680000A069A83898397FF17C0CE0101960E94AC
:10169000620697FF0EC09195819591090E945805A9
:1016A0008D819E818F3F910509F098CD0E9465053F
:1016B00095CD90E080E0F2CF0E94530589819A8118
:1016C000382F292F97FF02C030E020E010927E02D1
:1016D00010927D021092800210927F028134910557
:1016E0000CF4C7C090E480E09093C1028093C202E2
:1016F0001092C4021092C30230937B0220937C02AA
:101700000E949A068C0181304FEF940749F20E94A3
:101710006E068111C5CF17FF02C010E000E0F02E69
:1017200060E089E00E94BD0160E088E00E94BD01A8
:1017300060E083E00E94BD0160E086E00E94BD01A0
:1017400060E087E00E94BD0183E290E00197F1F73D
:1017500061E089E00E94EB0161E088E00E94EB011A
:1017600061E083E00E94EB0161E086E00E94EB0112
:10177000602F617089E00E94BD01B8017595679581
:10178000617088E00E94BD01B801759567957595F7
:101790006795617083E00E94BD01B80153E07595C3
:1017A00067955A95E1F7617086E00E94BD0161E09E
:1017B00087E00E94BD0180E197E20E9478028823C1
:1017C00009F459C060E087E00E94BD01C3010197A0
:1017D000F1F70E945802882309F44DC0B80184E053
:1017E000759567958A95E1F7617089E00E94BD0162
:1017F000B80195E0759567959A95E1F7617088E075
:101800000E94BD0126E0159507952A95E1F7602F06
:10181000617083E00E94BD016F2D661F6627661F01
:1018200086E00E94BD0161E087E00E94BD0180E189
:1018300097E20E9478028823F1F060E087E00E943E
:10184000BD01C3010197F1F70E945802882399F066
:1018500060E089E00E94EB0160E088E00E94EB011B
:1018600060E083E00E94EB0160E086E00E94EB0113
:1018700047CFC90139CF81E090E010CF0FE410E0ED
:1018800020CD00E310E01DCD0E94B00497FF5ECE96
:1018900019821A821B821C82CE0101960E94620468
:1018A000D82EC12C81115ACE81E090E054CEE5ECC7
:1018B000F2E01382128288EE93E0A0E0B0E084832D
:1018C0009583A683B78384E092E09183808385EC3F
:1018D00090E09587848784EC90E09787868780ECFA
:1018E00090E0918B808B81EC90E0938B828B82ECEB
:1018F00090E0958B848B86EC90E0978B868B118E95
:10190000128E138E148E0895EE0FFF1F0024001CFC
:101910000BBE0790F691E02D0994FB01DC0102C09B
:1019200001900D9241505040D8F70895F894FFCFA0
:10193000000000003B03A502D2028D030303E10275
:10194000F502536861727020416E6475696E6F2094
:0E19500044726976657220002E000D0A0000B8
:00000001FF
