:100000000C94D4000C94FC000C94FC000C94FC00A8
:100010000C94FC000C94FC000C94FC000C94FC0070
:100020000C94FC000C94FC000C94FD070C946C08E0
:100030000C94FC000C94FC000C94FC000C94FC0050
:100040000C94FC000C94FC000C94FC000C94FC0040
:100050000C94FC000C94FC000C94FC000C94B30772
:100060000C94FC000C94FC000C94FC000C94FC0020
:100070000C94FC000C94FC000C94FC000C94FC0010
:100080000C94FC000C94FC000C94FC000C94FC0000
:100090000C94FC000C94FC000C94FC000C94FC00F0
:1000A0000C94FC000C94FC000C94FC00080B000267
:1000B0000202000009040000010202000005240001
:1000C0001001052401010104240206052406000193
:1000D0000705810310004009040100020A00000026
:1000E00007050202400000070583024000000403E8
:1000F000090412010002EF02014041233780000190
:100100000102030141726475696E6F204C4C43001B
:1001100041726475696E6F204D6963726F000000F3
:100120000000240027002A002D00300000000000FD
:10013000250028002B002E003100000000002300C5
:10014000260029002C002F000404040404030405E5
:100150000202020204030202020206060606060664
:10016000040402020204040408020110408040104A
:1001700020408040800802040180402010020110CD
:100180008010204040200000000200090F00000302
:100190000401000C0000000000000000000000004E
:1001A000000000000000470F11241FBECFEFDAE06F
:1001B000DEBFCDBF11E0A0E0B1E0EAEDFEE102C09C
:1001C00005900D92A034B107D9F722E0A0E4B1E088
:1001D00001C01D92AD33B207E1F710E0C4EDD0E0ED
:1001E00004C02197FE010E945C0FC33DD107C9F7EF
:1001F0000E94D10A0C946B0F0C940000FC018091BA
:10020000EC01882311F13FB7F89482E08093E90074
:100210002091F200822F90E01816190614F481E064
:1002200090E0882339F0289A44E64093EB0140910E
:10023000F1004083222339F02091F200211103C004
:100240002BE62093E8003FBF08958FEF9FEF0895BE
:100250002FB7F89483E08093E9009091E800892F0C
:10026000807295FF04C09091F20080E4891B2FBF3B
:1002700008958091590181110DC082E0809355014C
:1002800084E080935601109258011092570181E04A
:100290008093590185E591E0089581508F3008F0F1
:1002A00047C0E82FF0E0E95AFE4F0C945C0F740150
:1002B000780166016C0170019801980198017B0139
:1002C0008101850189018F0198019301809180004E
:1002D0008F77809380000895809180008F7DF9CF83
:1002E00080918000877FF5CF84B58F7784BD089596
:1002F00084B58F7DFBCF809190008F7780939000A5
:100300000895809190008F7DF9CF80919000877F34
:10031000F5CF8091C0008F778093C00008958091C1
:10032000C0008F7DF9CF8091C200877F8093C2008B
:100330000895CF93DF93282F30E0F901EA57FE4F5D
:100340008491F901E959FE4FD491F901E85BFE4F20
:10035000C491CC23A1F081110E944D01EC2FF0E05B
:10036000EE0FFF1FE65CFE4FA591B491EC91ED23DB
:1003700081E090E009F480E0DF91CF91089580E082
:1003800090E0FACF1F93CF93DF93282F30E0F9014D
:10039000EA57FE4F8491F901E959FE4FD491F901D2
:1003A000E85BFE4FC491CC23A9F0162F81110E9467
:1003B0004D01EC2FF0E0EE0FFF1FE45DFE4FA59125
:1003C000B4918FB7F894EC91111108C0D095DE2349
:1003D000DC938FBFDF91CF911F910895DE2BF8CF73
:1003E000CF93DF9390E0FC01E959FE4F2491885BA5
:1003F0009E4FFC0184918823C9F090E0880F991FDB
:10040000FC01E25EFE4FA591B491FC01E45DFE4F5C
:10041000C591D49161110DC09FB7F8948C9120952E
:1004200082238C938881282328839FBFDF91CF91DB
:100430000895623051F49FB7F8943C91822F8095D3
:1004400083238C93E8812E2BEFCF8FB7F894EC9118
:100450002E2B2C938FBFEACF3FB7F8948091510198
:1004600090915201A0915301B091540126B5A89BDF
:1004700005C02F3F19F00196A11DB11D3FBFBA2F36
:10048000A92F982F8827BC01CD01620F711D811DF6
:10049000911D42E0660F771F881F991F4A95D1F77B
:1004A0000895CF92DF92EF92FF920E942C026B018F
:1004B0007C010E942C026C197D098E099F09683EFF
:1004C000734081059105A8F3FF90EF90DF90CF90E6
:1004D00008952FB7F89460914D0170914E0180916D
:1004E0004F01909150012FBF0895CF92DF92EF926C
:1004F000FF920E9469026B017C0182E00E949901D7
:10050000892B89F00E9469026C197D098E099F0967
:10051000613177428105910580F380E0FF90EF9093
:10052000DF90CF90089581E0F9CF8F929F92AF92A4
:10053000BF92CF92DF92EF92FF926C010E9469020C
:100540004B015C010D2C000CEE08FF0882E00E94BC
:100550009901892BA9F40E946902681979098A090D
:100560009B09C616D706E806F90680F780E0FF90DB
:10057000EF90DF90CF90BF90AF909F908F900895B5
:1005800081E0F5CF4091420150914301209140011B
:100590003091410142175307B4F49091E8009570EF
:1005A000E1F39091E80092FD19C08093F1008091F1
:1005B00042019091430101968F739927892B19F479
:1005C0008EEF8093E8008091420190914301019663
:1005D000909343018093420181E0089580E0089563
:1005E000DF92EF92FF920F931F93CF93DF93D82E5A
:1005F0008A01EB017B01E40EF51ECE15DF0559F0F3
:10060000D7FE12C0FE0184910E94C2022196811180
:10061000F4CF0FEF1FEFC801DF91CF911F910F9122
:10062000FF90EF90DF9008958881EECF0F931F9396
:10063000CF93DF931F92CDB7DEB782E0898342E488
:1006400050E06CEA70E080E80E94F0020E943901FC
:10065000DC0112960D911C910115110589F0D8014C
:10066000ED91FC910280F381E02DBE016F5F7F4F21
:10067000C801099597FD04C0F80100851185ECCFEC
:1006800089810F90DF91CF911F910F910895615053
:1006900030F02091F100FC0120830196F8CF289AD8
:1006A00084E68093EB0108958F929F92AF92BF9260
:1006B000CF92DF92EF92FF920F931F93CF93DF932E
:1006C0006C017B018A0180910B01882309F458C0D9
:1006D0008091EC01882309F453C08091460180FF8A
:1006E00005C08091E00082608093E000E801B12CB9
:1006F0008AEFA82E93E0892E2AE3922E209711F4F8
:10070000BB20B9F10E942801811106C0AA94AA2039
:10071000B9F10E945102F2CF8C171D0611F00CF0B6
:100720008C2F9FB7F8948092E9002091E80025FD76
:1007300002C09FBFE3CF282F30E0C21BD30BF701CD
:10074000815020F041914093F100FACFE20EF31E68
:10075000BB2021F09092E800B12CEBCF8091E80013
:1007600085FDE7CF9092E800BB24B394209709F36E
:10077000F3CF5D9A84E680934501101611063CF094
:1007800081E090E0F6019383828310E000E0C801ED
:10079000DF91CF911F910F91FF90EF90DF90CF905D
:1007A000BF90AF909F908F900895CF93DF931F924B
:1007B000CDB7DEB76983DC01ED91FC910280F38156
:1007C000E02D41E050E0BE016F5F7F4F09950F9033
:1007D000DF91CF91089583E08093E9008091F2004A
:1007E000882319F08AE38093E80008950E94280185
:1007F00090E00895CF93DF931F92CDB7DEB7FC0151
:100800008485958597FD08C02FEF3FEF35872487B6
:100810000F90DF91CF910895CE0101960E94FE00C6
:10082000019719F4898190E0F3CF8FEF9FEFF0CF1C
:100830000F931F93CF93DF931F92CDB7DEB78C0139
:10084000FC018485958597FF0BC0CE0101960E941F
:10085000FE00019771F4898190E0F8019587848703
:10086000F801848595850F90DF91CF911F910F91AD
:1008700008958FEF9FEFF1CFFC018485958597FD5B
:100880000BC09FB7F89482E08093E9008091F2005A
:100890009FBF90E0019608959FB7F89482E08093FF
:1008A000E9008091F2009FBF90E00895CF92DF921F
:1008B000EF92FF920F931F93CF93DF936B017C0115
:1008C000D0E0C0E010E000E00E942C026C197D092D
:1008D0008E099F09603D77408105910548F485E0C8
:1008E0000E9499010817190709F021968C01ECCF95
:1008F00081E02C970CF480E0DF91CF911F910F9154
:10090000FF90EF90DF90CF900895CF93DF93EC01AD
:1009100061E084E00E94C201CC0FDD1FCC0FDD1F1F
:100920002597CE010197F1F760E084E00E94C201B3
:100930002197F1F7DF91CF9108958AEF90E00E941F
:1009400085048AEF90E00E9485048AEF90E00E947F
:1009500085048AEF90E00C9485048F929F92AF9269
:10096000BF92CF92DF92EF92FF926C010E946902D8
:100970004B015C010D2C000CEE08FF0885E00E9485
:100980009901892BA9F40E946902681979098A09D9
:100990009B09C616D706E806F90680F780E0FF90A7
:1009A000EF90DF90CF90BF90AF909F908F90089581
:1009B00081E0F5CFCF92DF92EF92FF920F931F93DA
:1009C000CF938C0120E137E2C9010E94AD04882356
:1009D000D9F00E942C02F801608371838283938393
:1009E0000E9469026B017C0185E00E949901892BBC
:1009F00069F00E9469026C197D098E099F09693EA0
:100A000073408105910580F3C0E019C088EE93E042
:100A10000E94AD04C82F8823B9F30E942C0228EE4F
:100A200033E0F801C080D180E280F3806C197D0949
:100A30008E099F096E3071408105910528F28C2F37
:100A4000CF911F910F91FF90EF90DF90CF9008957D
:100A5000CF92DF92EF92FF920F931F93CF93DF938A
:100A600083EC90E00197F1F710E000E0D0E0C0E007
:100A700083ECC82ED12C93E5E92E92E0F92E61E0AB
:100A800087E00E94C20182E390E00E9495028111FA
:100A90000BC08FEF9FEFDF91CF911F910F91FF90D0
:100AA000EF90DF90CF900895C6010197F1F783E0B2
:100AB0000E949901002E02C0880F991F0A94E2F744
:100AC000C82BD92B60E087E00E94C2010E9475020A
:100AD0008823F9F2C7010197F1F70F5F1F4F083024
:100AE000110569F6CE01D7CFCF93DF938DEE91E05C
:100AF0000E943C0418161906D4F4C091E901D09163
:100B0000EA018091E7019091E801C817D9077CF4C8
:100B10008DEE91E00E94FA039E012F5F3F4F3093CC
:100B2000EA012093E901C955DE4F8883DFCFDF91C9
:100B3000CF910895CF93DF93C82F0E947405CC23E3
:100B400059F0C8E0D0E08DE790E00E94850421973D
:100B5000D1F7DF91CF910895DF91CF910C949D044F
:100B6000CF93DF93EC018731910574F485319105C2
:100B70002CF48330910511F0409741F460E18DEE43
:100B800091E00E94D50302C04897C1F36C2F8DEE0F
:100B900091E0DF91CF910C94D50366E08DEE91E06A
:100BA0000C94D503CF93C82F65E18DEE91E00E94A0
:100BB000D5036C2F8DEE91E0CF910C94D503CF929D
:100BC000DF92EF92FF920F931F93CF93DF9361E039
:100BD0008DEE91E00E94D50368E08DEE91E00E94D9
:100BE000D50362E08DEE91E00E94D5030E942C02B5
:100BF0006B017C010BE811E082E00E949901892BD6
:100C0000C1F40E942C026C197D098E099F0961357F
:100C1000734C8105910580F363E08DEE91E0DF91E7
:100C2000CF911F910F91FF90EF90DF90CF900C9498
:100C3000D50361E087E00E94C20189E00E9499012A
:100C400031E020E0892B09F430E0C32FD22F88E077
:100C50000E949901892B09F0C26083E00E949901EA
:100C6000892B09F0C46086E00E949901892B09F064
:100C7000C8600E94750281110CC081E090E0DF9194
:100C8000CF911F910F91FF90EF90DF90CF900C9438
:100C9000D205C8010197F1F760E087E00E94C20128
:100CA00080E197E20E949502882339F361E087E0B2
:100CB0000E94C20189E00E949901892B09F0C0615C
:100CC00088E00E949901892B09F0C06283E00E94AC
:100CD0009901892B09F0C06486E00E949901892B53
:100CE00009F0C0680E947502882339F2C801019793
:100CF000F1F760E087E00E94C2010E942C026B01C4
:100D00007C01CE010E94B00577CFCF92DF92EF92A7
:100D1000FF92CF93DF930E9469026B017C018DEEFD
:100D200091E00E943C040297A4F40E9469026C19AD
:100D30007D098E099F09693E73408105910578F30D
:100D40008FEF9FEFDF91CF91FF90EF90DF90CF90EB
:100D500008958DEE91E00E94FA03EC018DEE91E092
:100D60000E94FA0320E0382FC9018C2B9D2BEACF7B
:100D7000CF92DF92EF92FF920E9469026B017C0199
:100D80008DEE91E00E943C04892B91F40E9469024F
:100D90006C197D098E099F09693E73408105910593
:100DA00078F38FEF9FEFFF90EF90DF90CF90089553
:100DB0008DEE91E00E94FA03F6CFFC0180819181D3
:100DC00097FF03C09195819591099195819591091E
:100DD0000895CF93DF9300D0CDB7DEB79A83898390
:100DE00097FF14C0CE0101960E94DD0697FF0BC04D
:100DF0009195819591090E94D20581E00F900F9005
:100E0000DF91CF91089590E080E0F5CF80E0F6CFBC
:100E1000FC0101900020E9F73197AF01481B590B05
:100E2000BC018DEE91E00C9454030F931F93CF936C
:100E3000DF930E9469028DEE91E00E943C04C09114
:100E4000E901D091EA012091E7013091E8011816FB
:100E5000190694F4C217D3077CF48DEE91E00E943A
:100E6000FA039E012F5F3F4F3093EA012093E9017F
:100E7000C955DE4F8883DFCFC217D30799F520917C
:100E8000A3013091A4018091A5019091A60128179A
:100E9000390741F50091A1011091A2010C1B1D0B16
:100EA0001093A2010093A101AE0167EA71E081E60F
:100EB00091E00E94620FD093A401C093A30110920D
:100EC000A6011092A5010134110514F000E410E010
:100ED0001093E8010093E7011092EA011092E901F2
:100EE0000E94CD058091A5019091A6012091A301BA
:100EF0003091A401821793078CF49C012F5F3F4F20
:100F00003093A6012093A5018F599E4FFC0180814B
:100F100090E0DF91CF911F910F9108958091A101F1
:100F20009091A201181619060CF485CF81E09FEF6D
:100F3000F0CFCF93DF93CDB7DEB7A1970FB6F8947C
:100F4000DEBF0FBECDBF19A281E388A3CE0180967C
:100F50000E940807A1960FB6F894DEBF0FBECDBF62
:100F6000DF91CF9108951F920F920FB60F92112427
:100F70002F933F938F939F93AF93BF9380914D0196
:100F800090914E01A0914F01B091500130914C01D0
:100F900023E0230F2D3758F50196A11DB11D209395
:100FA0004C0180934D0190934E01A0934F01B0935B
:100FB00050018091510190915201A0915301B09143
:100FC00054010196A11DB11D8093510190935201CE
:100FD000A0935301B0935401BF91AF919F918F9112
:100FE0003F912F910F900FBE0F901F90189526E8FC
:100FF000230F0296A11DB11DD2CF1F920F920FB6E3
:101000000F9211248F939F938091E1009091E100C2
:10101000937F9093E10083FF0FC01092E90091E06D
:101020009093EB001092EC0092E39093ED001092FD
:10103000EC0198E09093F00082FF22C093E090933F
:10104000E9009091F200992319F09AE39093E80057
:1010500090914501992341F09091450191509093D1
:101060004501911101C05D989091EB01992341F0E8
:101070009091EB0191509093EB01911101C0289850
:1010800084FF18C08091E2008E7E81608093E20030
:101090008091E1008F7E8093E100809146018E7EF9
:1010A0008061809346019F918F910F900FBE0F90AA
:1010B0001F90189580FFF7CF8091E2008E7E8061AF
:1010C0008093E2008091E1008E7E8093E100809128
:1010D00046018E7E8160E5CF1F920F920FB60F9270
:1010E0001124CF92DF92EF92FF920F931F932F93D1
:1010F0003F934F935F936F937F938F939F93AF93A0
:10110000BF93EF93FF93CF93DF93CDB7DEB76C9789
:10111000DEBFCDBF1092E9008091E80083FF25C0BB
:1011200068E0CE0145960E94470382EF8093E80075
:101130008D8987FF39C09091E80090FFFCCF982FF0
:10114000907609F034C19E894F89588D2F89F88C8B
:10115000911131C0803861F5809147018093F10091
:101160001092F1008EEF8093E8006C960FB6F89421
:10117000DEBF0FBECDBFDF91CF91FF91EF91BF9149
:10118000AF919F918F917F916F915F914F913F911F
:101190002F911F910F91FF90EF90DF90CF900F90C4
:1011A0000FBE0F901F9018959EEF9093E800C7CF49
:1011B0001092F100D5CF913059F48111D3CF413045
:1011C000510581F6809147018D7F80934701CACFF9
:1011D000933049F48111C6CF4130510519F6809101
:1011E00047018260F2CF953041F48091E80080FFA2
:1011F000FCCF20682093E300B5CF963009F0A9C05A
:101200000B8D1C8D22E01092E90010924301109288
:101210004201F2122EC010924101109240010E9430
:1012200016031F8299E09983FA8291E09E8390EAE7
:1012300098879AEF99872091420130914301275F67
:101240003F4F3C832B838D831092E9001092430122
:1012500010924201109341010093400149E050E097
:10126000BE016F5F7F4F80E00E94F0020E94160374
:1012700079CF10934101009340010E943901DC01B4
:1012800012960D911C910115110509F451C1D80157
:10129000ED91FC910480F581E02DBE016B5E7F4FE6
:1012A000C8010995009709F03EC1F8010085118534
:1012B000EACFF3E0FF120EC08F89882309F440C003
:1012C000823061F440E86DE080E191E00E949E0A86
:1012D000811148CF81E28093EB0047CF813029F420
:1012E00040E86BE084E091E0F1CF833099F70E9411
:1012F0003901DC011296ED90FC908E010F5F1F4FBB
:101300006801E114F10479F0D701ED91FC910680B8
:10131000F781E02DB801C7010995080F111DF701EC
:10132000E084F184EECFD8011C92F60101900020F8
:10133000E9F73197BF016C197D0940E0C601C6CFBE
:101340006EEE70E0FB01449150E080E80E94F002F4
:1013500009CF973009F4BECF983021F481E0809313
:10136000F10000CF993009F0FDCE837009F0B2CFC3
:10137000EFE1F1E081E031E096E32191222371F089
:101380008093E9003093EB00DF0111972C912093BB
:10139000EC009093ED008F5F873079F78EE78093B4
:1013A000EA001092EA008F898093EC01DBCE8B8DEE
:1013B0009C8D1092E900109243011092420190938B
:1013C000410180934001898D811192C08E899D8950
:1013D000913A49F4813209F07DCF47E050E064E072
:1013E00071E080E0B3CF913209F074CF833269F4B9
:1013F0008F89988DB0E0A0E0809300019093010167
:10140000A0930201B0930301ADCE803269F48091C4
:10141000E80082FFFCCF67E084E091E00E94470390
:101420008BEF8093E8009ECE823209F09BCE8F89AD
:1014300080930B01EEEFFFE7859194918B3F9C4DDC
:1014400051F1E0E0F8E08091040190910501A09154
:101450000601B0910701803B9440A105B105F1F46C
:1014600080910B0180FD1AC0EE3F8AE0F80789F5F4
:1014700087E797E7918380838091600080934401A0
:1014800088E19BE00FB6F894A895809360000FBEAA
:101490009093600067CEEEEFFAE0D5CF8081918126
:1014A0008737974709F05ECEA895809160008861E4
:1014B000809360008091440180936000EE3F2AE0B9
:1014C000F20789F08091FE0A9091FF0A9183808350
:1014D00049CE808191818737980751F29093FF0A16
:1014E0008093FE0AC5CF1092FF0A1092FE0A3ACEF0
:1014F0000E943901DC0112960D911C910115110514
:1015000009F4E8CED801ED91FC910190F081E02D35
:10151000BE016B5E7F4FC8010995811123CEF80192
:1015200000851185EBCF181619060CF41BCED2CE10
:10153000F1E0FF12BECE62EF70E004CFEF92FF92B7
:101540000F931F93CF93DF93F82E192FE62E042FBE
:1015500081E0860F880F0E94C20283E00E94C202CF
:10156000CF2DD12FEC0EFD2EF11CCE15DF05B9F0DD
:1015700007FF13C0FE0184910E94C202182F80E071
:101580000E94C202812321968111EFCFDF91CF917A
:101590001F910F91FF90EF9008958881EDCF81E02A
:1015A000F5CFCF93DF93CDB7DEB728970FB6F8947A
:1015B000DEBF0FBECDBF789484B5826084BD84B594
:1015C000816084BD85B5826085BD85B5816085BD3E
:1015D00080916E00816080936E00109281008091F6
:1015E000810082608093810080918100816080937E
:1015F00081008091800081608093800080919100C3
:10160000826080939100809191008160809391002D
:10161000809190008160809390008091C1008460EF
:101620008093C1008091C10082608093C10080914D
:10163000C10081608093C1008091C300816080936C
:10164000C3008091C00082608093C0008091C2007E
:1016500081608093C20080917A00846080937A00D8
:1016600080917A00826080937A0080917A00816014
:1016700080937A0080917A00806880937A0010923B
:10168000EC0110924701109246018091D7008160D1
:101690008093D70080EA8093D80089B5806189BDA6
:1016A00089B5826089BD09B400FEFDCF0E94510258
:1016B0008091D8008F7C80618093D8008091E00079
:1016C000807F8093E0008091E1008E7E8093E10036
:1016D0008DE08093E200559A209A5D9828988FEFCC
:1016E0009FEF9093FA018093F90161E087E00E94F7
:1016F000F00160E085E00E94F00160E083E00E947C
:10170000F00160E082E00E94F00161E084E00E946C
:10171000F00160E086E00E94F00160E088E00E9455
:10172000F00160E089E00E94F00161E08DE00E943C
:10173000F00162E08EE00E94F001812C912C5401B6
:10174000839413EC612E712C8DEE91E00E943C0489
:10175000892B41F18DEE91E00E94FA0366E186311A
:10176000910509F412C10197E9F40E94B80698871F
:101770008F8397FF0AC0CE0107960E94DD0697FF70
:101780006BC2919581959109D6C18630910509F476
:1017900001C10CF0BDC08130910509F4CCC00297A5
:1017A00009F4C6C085E00E9499018C01892B71F172
:1017B0000E9428057C0197FD29C00F97029728F009
:1017C000C7018B7F8134910509F561E087E00E94B4
:1017D000C2018BE99CE80197F1F760E087E00E9485
:1017E000C20161E08DEE91E00E94D50363E08DEED1
:1017F00091E00E94D5036E2D8DEE91E00E94D503FD
:1018000081E4E816F10411F40E94DF0582E00E94F1
:101810009901892B09F44BC00115110509F047C046
:10182000D12CC12C80E197E20E949502882309F413
:101830003EC0C3010197F1F783E00E9499017C014A
:1018400061E087E00E94C2010E947502882379F15D
:10185000C3010197F1F760E087E00E94C2010C2C00
:1018600002C0EE0CFF1C0A94E2F70E291F292FEF8D
:10187000C21AD20A48E0C416D104A1F600331105F9
:1018800009F4ECC2003F110509F4EBC217FD0FC0CB
:1018900061E08DEE91E00E94D50364E08DEE91E071
:1018A0000E94D503602F8DEE91E00E94D5030E9427
:1018B0006902009148011091490120914A0130913B
:1018C0004B016B017C01C01AD10AE20AF30A9701AD
:1018D0008601083E13402105310590F060934801D0
:1018E0007093490180934A0190934B018DE00E94CF
:1018F000990161E0892B09F060E08DE00E94C2014E
:1019000080E090E0892B09F41FCF0E9400001CCFDB
:101910008730910509F4F0C0089709F043CF0E9481
:10192000B8069E838D8397FF9AC1CE01059625CF79
:101930000E94CD0537CF61E08DEE91E00E94D50386
:1019400061E08DEE91E00E94D50361E08DEE91E0C3
:101950000E94D50360E48DEE91E00E94D50362E021
:101960008DEE91E00E94D50385E291E00E94080788
:101970000E9499078BE391E00E9408070E94990753
:101980008DE391E00E94080763E08DEE91E00E94F4
:10199000D50308CF0E9485068C010E94E9068111BB
:1019A00001CF902F812F17FF02C090E080E01092AE
:1019B000A4011092A3011092A6011092A50130E497
:1019C00020E0013411050CF49C013093E7012093D1
:1019D000E8011092EA011092E9019093A10180932D
:1019E000A2010E94B8067C010E94E906D82E81114E
:1019F000D9CE8701F7FE02C010E000E00E94CD05BD
:101A00000E9415077C0181302FEF920759F481E085
:101A10000E949A0581E00E949A0560E08DE00E9494
:101A2000C201C0CE0E94E9068111BCCEDD2009F4BE
:101A300054C0F7FE02C0F12CE12C0E9474050E94F4
:101A40009D04A4E0CA2ED12C27015524C2010C2CE0
:101A500002C0959587950A94E2F781700E949A05D5
:101A60008FEFC81AD80A28E0C216D10479F781E0AE
:101A70000E949A050E9474050E949D04F12CE12C9D
:101A8000C2010E2C02C0959587950A94E2F78170E9
:101A90000E949A054FEFE41AF40A84E0E816F10474
:101AA00079F7E5E0CE2ED12C0115110519F472E07D
:101AB000C72ED12CF12CE12C81E00E949A052FEF4A
:101AC000E21AF20ACE14DF04B9F70115110511F07C
:101AD00001501109DD24D39493CF61E08DE00E9481
:101AE000C201FAEFCF2ED12C81E00E949A0541E08D
:101AF000C41AD108C9F79DCF0E94CD0585E00E9488
:101B00009901892B09F0B0C18DEE91E00E943C044F
:101B1000892BA1F38DEE91E00E94FA0388319105A3
:101B200011F04B9759F782E090E005C0409709F417
:101B30009FC183E090E00E94D20534CE69817A8112
:101B40008B819C810E94560481113BC010E000E013
:101B500064E0E62EF12C0E942C020E945604B5018E
:101B6000A4010E2C04C0440F551F661F771F0A9452
:101B7000D2F7882309F43EC0042B152B4FEFE41A4B
:101B8000F40A88E0E816F10431F70E942C020E9462
:101B90005604811134C00BEF1FEFC8010E94E90603
:101BA000811100CEC11005C062E08DEE91E00E946F
:101BB000D503C80117FF02C090E080E00E94B00585
:101BC000CD2C0E942C021B012C01CE0101960E94FB
:101BD000DA04182F0E942C026219730984099509EE
:101BE000112309F451C1613177428105910508F44F
:101BF000A5CFCACE4095509504231523BFCF0E9490
:101C00002C020E9456048111C6CFF12CE12C0E94B7
:101C10002C020E945604B501A4010E2C04C0440FEE
:101C2000551F661F771F0A94D2F7882381F0042B73
:101C3000152B2FEFE21AF20A44E0E416F10439F70B
:101C40000E942C020E9456048111A7CFA4CF409578
:101C5000509504231523EDCF90E080E06CCF0E94D7
:101C600085069A83898397FF17C0CE0101960E944B
:101C7000DD0697FF0EC09195819591090E94D205CE
:101C80008D819E818F3F910509F08CCD0E94DF05EB
:101C900089CD90E080E0F2CF0E94CD0589819A81C4
:101CA000382F292F97FF02C030E020E01092A401C6
:101CB0001092A3011092A6011092A5018134910502
:101CC0000CF4C7C090E480E09093E7018093E801B2
:101CD0001092EA011092E9013093A1012093A20130
:101CE0000E9415078C0181304FEF940749F20E9442
:101CF000E9068111C5CF17FF02C010E000E0F02E09
:101D000060E089E00E94C20160E088E00E94C201B8
:101D100060E083E00E94C20160E086E00E94C201B0
:101D200060E087E00E94C20183E290E00197F1F752
:101D300061E089E00E94F00161E088E00E94F0012A
:101D400061E083E00E94F00161E086E00E94F00122
:101D5000602F617089E00E94C201B8017595679596
:101D6000617088E00E94C201B8017595679575950C
:101D70006795617083E00E94C201B80153E07595D8
:101D800067955A95E1F7617086E00E94C20161E0B3
:101D900087E00E94C20180E197E20E9495028823B9
:101DA00009F459C060E087E00E94C201C3010197B5
:101DB000F1F70E947502882309F44DC0B80184E050
:101DC000759567958A95E1F7617089E00E94C20177
:101DD000B80195E0759567959A95E1F7617088E08F
:101DE0000E94C20126E0159507952A95E1F7602F1C
:101DF000617083E00E94C2016F2D661F6627661F17
:101E000086E00E94C20161E087E00E94C20180E199
:101E100097E20E9495028823F1F060E087E00E943B
:101E2000C201C3010197F1F70E947502882399F05E
:101E300060E089E00E94F00160E088E00E94F0012B
:101E400060E083E00E94F00160E086E00E94F00123
:101E500047CFC90139CF81E090E010CF0FE410E007
:101E600017CD00E310E014CD0E94280597FF5ECE49
:101E700019821A821B821C82CE0101960E94DA040A
:101E8000D82EC12C81115ACE81E090E054CEEDEED7
:101E9000F1E01382128288EE93E0A0E0B0E0848348
:101EA0009583A683B78380E191E0918380838FEF50
:101EB0009FEF958784870895EE0FFF1F0590F4919B
:101EC000E02D0994FB01DC0102C001900D9241500C
:0A1ED0005040D8F70895F894FFCFB2
:101EDA00FFFFFFFF00E1000000000000000000001B
:101EEA00D5035403F603EB033C04FA03180400C1B8
:101EFA008081000000536861727020416E647569C8
:101F0A006E6F2044726976657220002E000D0A00F9
:00000001FF
