:100000000C9462000C948A000C948A000C948A0070
:100010000C948A000C948A000C948A000C948A0038
:100020000C948A000C948A000C948A000C948A0028
:100030000C948A000C948A000C948A000C948A0018
:100040000C947A050C948A000C94EA050C94C4056F
:100050000C948A000C948A000C948A000C948A00F8
:100060000C948A000C948A000000000024002700F1
:100070002A0000000000250028002B0000000000DE
:1000800023002600290004040404040404040202DA
:100090000202020203030303030301020408102007
:1000A0004080010204081020010204081020000012
:1000B0000008000201000003040700000000000027
:1000C0000000640B11241FBECFEFD8E0DEBFCDBF10
:1000D00011E0A0E0B1E0E4E4F7E102C005900D9288
:1000E000AE32B107D9F722E0AEE2B1E001C01D9215
:1000F000A236B207E1F710E0C2E6D0E004C02197D3
:10010000FE010E94910BC136D107C9F70E941C065F
:100110000C94A00B0C940000833081F028F4813003
:1001200099F08230A9F008958730A9F08830C9F09D
:100130008430B1F4809180008F7D03C08091800075
:100140008F7780938000089584B58F7784BD08955C
:1001500084B58F7DFBCF8091B0008F778093B00006
:1001600008958091B0008F7DF9CFCF93DF93282F32
:1001700030E0F901E255FF4F8491F901E656FF4F57
:10018000D491F901EA57FF4FC491CC23A1F081111A
:100190000E948C00EC2FF0E0EE0FFF1FE458FF4FA1
:1001A000A591B491EC91ED2381E090E009F480E019
:1001B000DF91CF91089580E090E0FACF1F93CF9325
:1001C000DF93282F30E0F901E255FF4F8491F901C8
:1001D000E656FF4FD491F901EA57FF4FC491CC2363
:1001E000A9F0162F81110E948C00EC2FF0E0EE0F89
:1001F000FF1FEE58FF4FA591B4918FB7F894EC9183
:10020000111108C0D095DE23DC938FBFDF91CF9111
:100210001F910895DE2BF8CFCF93DF9390E0FC0180
:10022000E656FF4F24918A579F4FFC018491882303
:10023000D1F090E0880F991FFC01E859FF4FA5917C
:10024000B491FC01EE58FF4FC591D49161110EC0DD
:100250009FB7F8948C91E22FE0958E238C932881A0
:10026000E223E8839FBFDF91CF9108958FB7F89481
:10027000EC91E22BEC938FBFF6CF3FB7F8948091CF
:10028000C1019091C201A091C301B091C40126B5F2
:10029000A89B05C02F3F19F00196A11DB11D3FBFBE
:1002A000BA2FA92F982F8827BC01CD01620F711D8D
:1002B000811D911D42E0660F771F881F991F4A9587
:1002C000D1F708952FB7F8946091BD017091BE01E8
:1002D0008091BF019091C0012FBF0895CF92DF920E
:1002E000EF92FF920E9462016B017C0182E00E940A
:1002F000B500892B89F00E9462016C197D098E0975
:100300009F09613177428105910580F380E0FF907C
:10031000EF90DF90CF90089581E0F9CF8F929F9278
:10032000AF92BF92CF92DF92EF92FF926C010E9448
:1003300062014B015C010D2C000CEE08FF0882E00D
:100340000E94B500892BA9F40E94620168197909FD
:100350008A099B09C616D706E806F90680F780E0E9
:10036000FF90EF90DF90CF90BF90AF909F908F90D5
:10037000089581E0F5CFAF92BF92CF92DF92EF92D6
:10038000FF920F931F93CF93DF936C017B018B013F
:10039000040F151FEB015E01AE18BF08C017D1078F
:1003A00059F06991D601ED91FC910190F081E02D19
:1003B000C6010995892B79F7C501DF91CF911F916E
:1003C0000F91FF90EF90DF90CF90BF90AF90089586
:1003D000FC01538D448D252F30E0842F90E0821B4B
:1003E000930B541710F0CF96089501970895FC01D0
:1003F000918D828D981761F0A28DAE0FBF2FB11D28
:100400005D968C91928D9F5F9F73928F90E008957F
:100410008FEF9FEF0895FC01918D828D981731F039
:10042000828DE80FF11D858D90E008958FEF9FEF8D
:100430000895FC01918D228D892F90E0805C9F4F63
:10044000821B91098F739927089585EC91E00E9492
:10045000190221E0892B09F420E0822F089580E021
:1004600090E0892B29F00E94250281110C94000054
:100470000895FC01A48DA80FB92FB11DA35ABF4F39
:100480002C91848D90E001968F739927848FA68993
:10049000B7892C93A089B1898C91837080648C93E7
:1004A000938D848D981306C00288F389E02D808196
:1004B0008F7D80830895EF92FF920F931F93CF93C8
:1004C000DF93EC0181E0888F9B8D8C8D98131AC08F
:1004D000E889F989808185FF15C09FB7F894EE8976
:1004E000FF896083E889F9898081837080648083D3
:1004F0009FBF81E090E0DF91CF911F910F91FF901E
:10050000EF900895F62E0B8D10E00F5F1F4F0F73C5
:100510001127E02E8C8D8E110CC00FB607FCFACF80
:10052000E889F989808185FFF5CFCE010E943902E3
:10053000F1CFEB8DEC0FFD2FF11DE35AFF4FF08251
:100540009FB7F8940B8FEA89FB8980818062CFCFB7
:10055000682F85EC91E00C945B02CF93DF93EC0164
:10056000888D8823B9F0AA89BB89E889F9898C919B
:1005700085FD03C0808186FD0DC00FB607FCF7CF57
:100580008C9185FFF2CF808185FFEDCFCE010E9457
:100590003902E9CFDF91CF910895CF92DF92EF92A8
:1005A000FF920F931F93CF93DF936B017C01D0E0F9
:1005B000C0E010E000E00E943D016C197D098E0949
:1005C0009F09603D77408105910548F485E00E94D0
:1005D000B5000817190709F021968C01ECCF81E0CE
:1005E0002C970CF480E0DF91CF911F910F91FF9039
:1005F000EF90DF90CF900895CF93DF93EC0161E00F
:1006000084E00E94DE00CC0FDD1FCC0FDD1F25979C
:10061000CE010197F1F760E084E00E94DE002197AF
:10062000F1F7DF91CF9108958AEF90E00E94FC02EC
:100630008AEF90E00E94FC028AEF90E00E94FC02A8
:100640008AEF90E00C94FC02CF93DF93882359F05B
:10065000C8E0D0E08DE790E00E94FC022197D1F73E
:10066000DF91CF910895DF91CF910C9414038F9275
:100670009F92AF92BF92CF92DF92EF92FF926C0166
:100680000E9462014B015C010D2C000CEE08FF087A
:1006900085E00E94B500892BA9F40E9462016819C7
:1006A00079098A099B09C616D706E806F90680F774
:1006B00080E0FF90EF90DF90CF90BF90AF909F9041
:1006C0008F90089581E0F5CFCF92DF92EF92FF9265
:1006D0000F931F93CF938C0120E137E2C9010E9451
:1006E00037038823D9F00E943D01F80160837183AC
:1006F000828393830E9462016B017C0185E00E94EA
:10070000B500892B69F00E9462016C197D098E0980
:100710009F09693E73408105910580F3C0E019C0CF
:1007200088EE93E00E943703C82F8823B9F30E9414
:100730003D0128EE33E0F801C080D180E280F380F3
:100740006C197D098E099F096E30714081059105F4
:1007500028F28C2FCF911F910F91FF90EF90DF9097
:10076000CF900895CF92DF92EF92FF920F931F9355
:10077000CF93DF9383EC90E00197F1F710E000E076
:10078000D0E0C0E083ECC82ED12C93E5E92E92E0B6
:10079000F92E61E087E00E94DE0082E390E00E9493
:1007A0008E0181110BC08FEF9FEFDF91CF911F91D1
:1007B0000F91FF90EF90DF90CF900895C6010197C1
:1007C000F1F783E00E94B500002E02C0880F991F48
:1007D0000A94E2F7C82BD92B60E087E00E94DE0084
:1007E0000E946E018823F9F2C7010197F1F70F5FAC
:1007F0001F4F0830110569F6CE01D7CFCF93DF9395
:10080000EC018731910574F4853191052CF4833026
:10081000910511F0409741F460E185EC91E00E9470
:100820005B0202C04897C1F3CE01DF91CF910C94D7
:10083000A80266E085EC91E00C945B02CF93DF9315
:10084000EC0165E185EC91E00E945B02CE01DF9155
:10085000CF910C94A802CF92DF92EF92FF920F9368
:100860001F93CF93DF9361E085EC91E00E945B02E0
:1008700088E090E00E94A80262E085EC91E00E948E
:100880005B020E943D016B017C010BE811E082E0FC
:100890000E94B500892BC1F40E943D016C197D09AD
:1008A0008E099F096135734C8105910580F363E0E2
:1008B00085EC91E0DF91CF911F910F91FF90EF9028
:1008C000DF90CF900C945B0261E087E00E94DE0035
:1008D00089E00E94B50031E020E0892B09F430E086
:1008E000C32FD22F88E00E94B500892B09F0C26087
:1008F00083E00E94B500892B09F0C46086E00E9465
:10090000B500892B09F0C8600E946E0181110CC0EE
:1009100081E090E0DF91CF911F910F91FF90EF90D8
:10092000DF90CF900C941E04C8010197F1F760E0AE
:1009300087E00E94DE0080E197E20E948E0188231A
:1009400039F361E087E00E94DE0089E00E94B50093
:10095000892B09F0C06188E00E94B500892B09F05D
:10096000C06283E00E94B500892B09F0C06486E074
:100970000E94B500892B09F0C0680E946E0188238F
:1009800039F2C8010197F1F760E087E00E94DE00CC
:100990000E943D016B017C01CE010E94FE0377CFD6
:1009A000CF92DF92EF92FF92CF93DF930E9462018A
:1009B0006B017C0185EC91E00E9419020297A4F47E
:1009C0000E9462016C197D098E099F09613D774083
:1009D0008105910578F38FEF9FEFDF91CF91FF9025
:1009E000EF90DF90CF90089585EC91E00E94F701A1
:1009F000EC0185EC91E00E94F70120E0382FC9015D
:100A00008C2B9D2BEACFCF92DF92EF92FF920E9428
:100A100062016B017C0185EC91E00E941902892B37
:100A200091F40E9462016C197D098E099F09613D54
:100A300077408105910578F38FEF9FEFFF90EF905E
:100A4000DF90CF90089585EC91E00E94F701F6CFFA
:100A5000FC018081918197FF03C091958195910957
:100A60009195819591090895CF93DF9300D0CDB7EB
:100A7000DEB79A83898397FF14C0CE0101960E9446
:100A8000280597FF0BC09195819591090E941E043E
:100A900081E00F900F90DF91CF91089590E080E07A
:100AA000F5CF80E0F6CFFC0101900020E9F7319707
:100AB000AF01481B590BBC0185EC91E00C94BB01C4
:100AC000CF93DF93CDB7DEB7A1970FB6F894DEBF13
:100AD0000FBECDBF19A2805D88A3CE0180960E9473
:100AE0005305A1960FB6F894DEBF0FBECDBFDF91C0
:100AF000CF9108951F920F920FB60F9211242F934A
:100B00003F938F939F93AF93BF938091BD0190913B
:100B1000BE01A091BF01B091C0013091BC0123E0A2
:100B2000230F2D3758F50196A11DB11D2093BC014F
:100B30008093BD019093BE01A093BF01B093C0010B
:100B40008091C1019091C201A091C301B091C401F3
:100B50000196A11DB11D8093C1019093C201A09384
:100B6000C301B093C401BF91AF919F918F913F9109
:100B70002F910F900FBE0F901F90189526E8230F0E
:100B80000296A11DB11DD2CF1F920F920FB60F92E8
:100B900011242F933F934F935F936F937F938F9382
:100BA0009F93AF93BF93EF93FF9385EC91E00E94E7
:100BB0003902FF91EF91BF91AF919F918F917F91FA
:100BC0006F915F914F913F912F910F900FBE0F90BA
:100BD0001F9018951F920F920FB60F9211242F930A
:100BE0008F939F93EF93FF93E091D501F091D601FE
:100BF0008081E091DB01F091DC0182FD1BC09081DE
:100C00008091DE018F5F8F732091DF01821741F0A9
:100C1000E091DE01F0E0EB53FE4F958F8093DE0113
:100C2000FF91EF919F918F912F910F900FBE0F9099
:100C30001F9018958081F4CFCF93DF93CDB7DEB7A7
:100C400029970FB6F894DEBF0FBECDBF789484B558
:100C5000826084BD84B5816084BD85B5826085BDB8
:100C600085B5816085BD80916E00816080936E0046
:100C70001092810080918100826080938100809138
:100C800081008160809381008091800081608093E9
:100C900080008091B10084608093B1008091B000A9
:100CA00081608093B00080917A00846080937A00A4
:100CB00080917A00826080937A0080917A008160CE
:100CC00080937A0080917A00806880937A001092F5
:100CD000C100E091D501F091D60182E08083E091DE
:100CE000D101F091D2011082E091D301F091D401B1
:100CF00080E180831092DD01E091D901F091DA0169
:100D000086E08083E091D701F091D80180818061F5
:100D10008083E091D701F091D80180818860808341
:100D2000E091D701F091D801808180688083E091C3
:100D3000D701F091D80180818F7D808361E087E0C9
:100D40000E940C0160E085E00E940C0160E083E0FD
:100D50000E940C0160E082E00E940C0161E084E0EE
:100D60000E940C0160E086E00E940C0160E088E0D7
:100D70000E940C0160E089E00E940C0161E08DE0BE
:100D80000E940C0143E2242E312C812C912C540121
:100D9000839485EC91E00E941902892B41F185EC46
:100DA00091E00E94F70166E18631910509F417C1CF
:100DB0000197E9F40E94030598878F8397FF0AC083
:100DC000CE0107960E94280597FFF0C29195819564
:100DD00091095BC28630910509F406C10CF0BFC0D1
:100DE0008130910509F4CEC0029709F4C8C085E0AE
:100DF0000E94B5008C01892B59F10E94B2037C013D
:100E000097FD26C00F97029728F0C7018B7F81348A
:100E10009105F1F461E087E00E94DE008BE99CE837
:100E20000197F1F760E087E00E94DE0061E085EC69
:100E300091E00E945B0283E090E00E94A802C7015B
:100E40000E94A802F1E4EF16F10411F40E942B04B1
:100E500082E00E94B500892B09F44BC001151105F1
:100E600009F047C0F12CE12C83EC682E712C80E155
:100E700097E20E948E01882309F43BC0C3010197C9
:100E8000F1F783E00E94B5006C0161E087E00E9409
:100E9000DE000E946E01882361F1C3010197F1F722
:100EA00060E087E00E94DE000E2C02C0CC0CDD1C4E
:100EB0000A94E2F70C291D292FEFE21AF20A48E002
:100EC000E416F104A1F60033110509F4E4C3003F70
:100ED000110509F4E3C317FD0CC061E085EC91E056
:100EE0000E945B0284E090E00E94A802C8010E9478
:100EF000A8020E9462010091B8011091B9012091ED
:100F0000BA013091BB016B017C01C01AD10AE20A1F
:100F1000F30A97018601083E13402105310590F040
:100F20006093B8017093B9018093BA019093BB01AB
:100F30008DE00E94B50061E0892B09F060E08DE052
:100F40000E94DE0080E090E0892B09F422CF0E940D
:100F50002502882309F41DCF0E9400001ACF873094
:100F6000910509F473C1089709F041CF0E94030568
:100F70009E838D8397FF1DC2CE01059623CF0E94CD
:100F8000190435CF61E085EC91E00E945B0261E0DD
:100F900085EC91E00E945B0263E085EC91E00E94A9
:100FA0005B0280E490E00E94A80262E085EC91E0A0
:100FB0000E945B0282E191E00E94530581E090E093
:100FC0000E94600588E291E00E94530583E090E072
:100FD0000E9460058AE291E00E94530563E085EC7F
:100FE00091E00E945B0203CF0E94D0048C010E941A
:100FF00034058111FCCE902F812F17FF02C090E0A5
:1010000080E01092B7011092B6011092B5011092D3
:10101000B40130E420E0013411050CF49C0130935C
:10102000B2012093B3011092B1011092B0019093DC
:10103000AE018093AF010E9403057C010E9434053C
:1010400089878111D4CE8701F7FE02C010E000E04D
:101050000E9419040E9462012B013C01C090AE0164
:10106000D090AF011C141D04CCF02091B40130913C
:10107000B5018091B6019091B701281739070CF49A
:1010800068C0F89481E00E94240381E00E94240358
:10109000789460E08DE00E94DE00A9CEE090B2017D
:1010A000F090B3018091B0019091B1018E159F0530
:1010B00064F585EC91E00E94190218161906A4F453
:1010C00085EC91E00E94F7012091B0013091B101CF
:1010D000A9014F5F5F4F5093B1014093B001225976
:1010E0003E4FF9018083E5CFC1010197F1F70E94DE
:1010F0006201641975098609970969387341810588
:10110000910560F28FEF9FEF26C0CE18DF08D092D6
:10111000AF01C092AE01A7016EE671E08EE291E0F0
:101120000E94970BF092B701E092B6011092B501C0
:101130001092B40121E4C216D1041CF030E4C32E95
:10114000D12CD092B301C092B2011092B101109291
:10115000B00190E080E00E943405811148CEF894FF
:101160008091B4019091B5012091B6013091B70101
:101170008217930714F078946BCF9C012F5F3F4F39
:101180003093B5012093B401825D9E4FFC01E08055
:10119000F12CC984CC2009F44AC00E94140324E035
:1011A000C22ED12CC7010C2C02C0959587950A94AC
:1011B000E2F781700E9424034FEFC41AD40A88E03A
:1011C000C816D10479F781E00E9424030E94140319
:1011D000D12CC12CC7010C2C02C0959587950A947F
:1011E000E2F781700E942403EFEFCE1ADE0AF4E0EA
:1011F000CF16D10479F785E0C82ED12C0115110541
:1012000019F4B2E0CB2ED12CF12CE12C81E00E941C
:1012100024032FEFE21AF20ACE14DF04B9F7011506
:10122000110511F00150110941E0498799CF61E0A2
:101230008DE00E94DE009AEFC92ED12C81E00E9441
:10124000240321E0C21AD108C9F7A7CF0E941904CC
:1012500085E00E94B500892B09F023C285EC91E05E
:101260000E941902892BA1F385EC91E00E94F701FD
:101270008831910511F04B9759F782E090E005C055
:10128000409709F412C283E090E00E941E04AFCDA3
:1012900069817A818B819C810E94CD0281113BC042
:1012A00010E000E0A4E0EA2EF12C0E943D010E9433
:1012B000CD02B501A4010E2C04C0440F551F661FBA
:1012C000771F0A94D2F7882309F43EC0042B152B0C
:1012D0004FEFE41AF40A88E0E816F10431F70E94AF
:1012E0003D010E94CD02811134C00BEF1FEFC801F8
:1012F0000E94340581117BCDC11005C062E085ECF0
:1013000091E00E945B02C80117FF02C090E080E0FC
:101310000E94FE03CD2C0E943D012B013C01CE0119
:1013200001960E946403182F0E943D0164197509FB
:1013300086099709112309F4C4C1613177428105F7
:10134000910508F4A5CF4ACE409550950423152366
:10135000BFCF0E943D010E94CD028111C6CFF12C6A
:10136000E12C0E943D010E94CD02B501A4010E2C8A
:1013700004C0440F551F661F771F0A94D2F78823B5
:1013800081F0042B152BEFEFEE1AFE0AF4E0EF16B6
:10139000F10439F70E943D010E94CD028111A7CFCF
:1013A000A4CF4095509504231523EDCF90E080E025
:1013B0006CCF0E94D0049A83898397FF0FC0CE011F
:1013C00001960E94280597FF06C091958195910985
:1013D0000E941E04A3C090E080E0FACF0E9419048E
:1013E00089819A81382F292F97FF02C030E020E0B1
:1013F0001092B7011092B6011092B5011092B4018B
:1014000081349105ACF190E480E09093B201809337
:10141000B3011092B1011092B0013093AE0120934C
:10142000AF01F3ECEF2EF12C0E94620185EC91E00C
:101430000E9419020091B0011091B1012091B201F6
:101440003091B30118161906ACF40217130794F47F
:1014500085EC91E00E94F70198012F5F3F4F309398
:10146000B1012093B001F801E259FE4F8083DECF35
:10147000C901CBCF02171307A1F52091B401309118
:10148000B5018091B6019091B7012817390749F548
:10149000C090AE01D090AF01C01AD10AD092AF0176
:1014A000C092AE01A8016EE671E08EE291E00E946A
:1014B000970B1093B7010093B6011092B5011092EB
:1014C000B401C6018134910514F080E490E090935A
:1014D000B3018093B2011092B1011092B0010E9449
:1014E00019048091B4019091B5012091B601309119
:1014F000B70182179307DCF49C012F5F3F4F3093B5
:10150000B5012093B401825D9E4FFC01D0800D2D6A
:1015100010E0C8010E943405882391F08D819E81DE
:101520008F3F910509F063CC0E942B0460CC809121
:10153000AE019091AF01181619060CF477CFEECFDB
:1015400060E089E00E94DE0060E088E00E94DE004A
:1015500060E083E00E94DE0060E086E00E94DE0042
:1015600060E087E00E94DE00C1010197F1F761E0D1
:1015700089E00E940C0161E088E00E940C0161E0BA
:1015800083E00E940C0161E086E00E940C016D2D59
:10159000617089E00E94DE00B80175956795617001
:1015A00088E00E94DE00B80175956795759567958E
:1015B000617083E00E94DE00B801E3E075956795F5
:1015C000EA95E1F7617086E00E94DE0061E087E065
:1015D0000E94DE0080E197E20E948E01882309F4D8
:1015E00057C060E087E00E94DE00C7010197F1F775
:1015F0000E946E01882309F44BC0B80194E07595F0
:1016000067959A95E1F7617089E00E94DE00B80164
:1016100025E0759567952A95E1F7617088E00E944D
:10162000DE0036E0159507953A95E1F7602F617079
:1016300083E00E94DE006D2D661F6627661F86E030
:101640000E94DE0061E087E00E94DE0080E197E218
:101650000E948E018823E1F060E087E00E94DE00B6
:10166000C7010197F1F70E946E01882389F060E0BD
:1016700089E00E940C0160E088E00E940C0160E0BB
:1016800083E00E940C0160E086E00E940C01CCCE59
:1016900081E090E09DCE0FE410E01FCC00E310E06D
:1016A0001CCC0E94B20397FFEBCD19821A821B82D9
:1016B0001C82CE0101960E946403D82EC12C811198
:1016C000E7CD81E090E0E1CDE5ECF1E0138212821C
:1016D00088EE93E0A0E0B0E084839583A683B7838F
:1016E00084E091E09183808385EC90E09587848706
:1016F00084EC90E09787868780EC90E0918B808BDC
:1017000081EC90E0938B828B82EC90E0958B848BC4
:1017100086EC90E0978B868B118E128E138E148E32
:101720000895EE0FFF1F0590F491E02D0994FB0141
:10173000DC0102C001900D9241505040D8F708954D
:04174000F894FFCF4B
:10174400000000005B02BB01E801AD021902F701D1
:101754000B0253686172702041726475696E6F2068
:0E17640044726976657220002E000D0A0000A6
:00000001FF
