:100000000C9462000C948A000C948A000C948A0070
:100010000C948A000C948A000C948A000C948A0038
:100020000C948A000C948A000C948A000C948A0028
:100030000C948A000C948A000C948A000C948A0018
:100040000C9432060C948A000C94A2060C947C0644
:100050000C948A000C948A000C948A000C948A00F8
:100060000C948A000C948A000000000024002700F1
:100070002A0000000000250028002B0000000000DE
:1000800023002600290004040404040404040202DA
:100090000202020203030303030301020408102007
:1000A0004080010204081020010204081020000012
:1000B0000008000201000003040700000000000027
:1000C0000000260B11241FBECFEFD8E0DEBFCDBF4E
:1000D00011E0A0E0B1E0E8ECF6E102C005900D927D
:1000E000AE32B107D9F722E0AEE2B1E001C01D9215
:1000F000A236B207E1F710E0C2E6D0E004C02197D3
:10010000FE010E94530BC136D107C9F70E94D406E5
:100110000C94620B0C940000833081F028F4813041
:1001200099F08230A9F008958730A9F08830C9F09D
:100130008430B1F4809180008F7D03C08091800075
:100140008F7780938000089584B58F7784BD08955C
:1001500084B58F7DFBCF8091B0008F778093B00006
:1001600008958091B0008F7DF9CFCF93DF93282F32
:1001700030E0F901E255FF4F8491F901E656FF4F57
:10018000D491F901EA57FF4FC491CC23A1F081111A
:100190000E948C00EC2FF0E0EE0FFF1FE458FF4FA1
:1001A000A591B491EC91ED2381E090E009F480E019
:1001B000DF91CF91089580E090E0FACF1F93CF9325
:1001C000DF93282F30E0F901E255FF4F8491F901C8
:1001D000E656FF4FD491F901EA57FF4FC491CC2363
:1001E000A9F0162F81110E948C00EC2FF0E0EE0F89
:1001F000FF1FEE58FF4FA591B4918FB7F894EC9183
:10020000111108C0D095DE23DC938FBFDF91CF9111
:100210001F910895DE2BF8CFCF93DF9390E0FC0180
:10022000E656FF4F24918A579F4FFC018491882303
:10023000C9F090E0880F991FFC01E859FF4FA59184
:10024000B491FC01EE58FF4FC591D49161110DC0DE
:100250009FB7F8948C91209582238C9388812823D2
:1002600028839FBFDF91CF910895623051F49FB7EB
:10027000F8943C91822F809583238C93E8812E2BD8
:10028000EFCF8FB7F894EC912E2B2C938FBFEACF42
:100290003FB7F8948091370190913801A0913901CE
:1002A000B0913A0126B5A89B05C02F3F19F00196E1
:1002B000A11DB11D3FBFBA2FA92F982F8827BC01C0
:1002C000CD01620F711D811D911D42E0660F771FE8
:1002D000881F991F4A95D1F708952FB7F894609118
:1002E00033017091340180913501909136012FBF17
:1002F0000895CF92DF92EF92FF920E946D016B0101
:100300007C0182E00E94B500892B89F00E946D017A
:100310006C197D098E099F0961317742810591052C
:1003200080F380E0FF90EF90DF90CF90089581E020
:10033000F9CF8F929F92AF92BF92CF92DF92EF92BE
:10034000FF926C010E946D014B015C010D2C000CB1
:10035000EE08FF0882E00E94B500892BA9F40E94F4
:100360006D01681979098A099B09C616D706E8063E
:10037000F90680F780E0FF90EF90DF90CF90BF907C
:10038000AF909F908F90089581E0F5CFAF92BF928C
:10039000CF92DF92EF92FF920F931F93CF93DF9351
:1003A0006C017B018B01040F151FEB015E01AE1880
:1003B000BF08C017D10759F06991D601ED91FC91A2
:1003C0000190F081E02DC6010995892B79F7C501CF
:1003D000DF91CF911F910F91FF90EF90DF90CF9021
:1003E000BF90AF900895FC01538D448D252F30E0D0
:1003F000842F90E0821B930B541710F0CF96089532
:1004000001970895FC01918D828D981761F0A28D5E
:10041000AE0FBF2FB11D5D968C91928D9F5F9F7324
:10042000928F90E008958FEF9FEF0895FC01918DDA
:10043000828D981731F0828DE80FF11D858D90E047
:1004400008958FEF9FEF0895FC01918D228D892FE4
:1004500090E0805C9F4F821B91098F7399270895CC
:1004600085EC91E00E94240221E0892B09F420E030
:10047000822F089580E090E0892B29F00E943002BD
:1004800081110C9400000895FC01A48DA80FB92FD0
:10049000B11DA35ABF4F2C91848D90E001968F73AC
:1004A0009927848FA689B7892C93A089B1898C91CB
:1004B000837080648C93938D848D981306C002881A
:1004C000F389E02D80818F7D80830895EF92FF92E4
:1004D0000F931F93CF93DF93EC0181E0888F9B8D67
:1004E0008C8D98131AC0E889F989808185FF15C021
:1004F0009FB7F894EE89FF896083E889F989808144
:100500008370806480839FBF81E090E0DF91CF9112
:100510001F910F91FF90EF900895F62E0B8D10E034
:100520000F5F1F4F0F731127E02E8C8D8E110CC0A3
:100530000FB607FCFACFE889F989808185FFF5CFEE
:10054000CE010E944402F1CFEB8DEC0FFD2FF11D87
:10055000E35AFF4FF0829FB7F8940B8FEA89FB892B
:1005600080818062CFCF682F85EC91E00C94660289
:10057000CF93DF93EC01888D8823B9F0AA89BB89DA
:10058000E889F9898C9185FD03C0808186FD0DC0C5
:100590000FB607FCF7CF8C9185FFF2CF808185FFE6
:1005A000EDCFCE010E944402E9CFDF91CF910895B3
:1005B000CF92DF92EF92FF920F931F93CF93DF932F
:1005C0006B017C01D0E0C0E010E000E00E94480137
:1005D0006C197D098E099F09603D77408105910561
:1005E00048F485E00E94B5000817190709F0219624
:1005F0008C01ECCF81E02C970CF480E0DF91CF915F
:100600001F910F91FF90EF90DF90CF900895CF93BF
:10061000DF93EC0161E084E00E94DE00CC0FDD1F7F
:10062000CC0FDD1F2597CE010197F1F760E084E044
:100630000E94DE002197F1F7DF91CF9108958AEFB4
:1006400090E00E9407038AEF90E00E9407038AEF80
:1006500090E00E9407038AEF90E00C9407038F92CA
:100660009F92AF92BF92CF92DF92EF92FF926C0176
:100670000E946D014B015C010D2C000CEE08FF087F
:1006800085E00E94B500892BA9F40E946D016819CC
:1006900079098A099B09C616D706E806F90680F784
:1006A00080E0FF90EF90DF90CF90BF90AF909F9051
:1006B0008F90089581E0F5CFCF92DF92EF92FF9275
:1006C0000F931F93CF938C0120E137E2C9010E9461
:1006D0002F038823D9F00E944801F80160837183B9
:1006E000828393830E946D016B017C0185E00E94EF
:1006F000B500892B69F00E946D016C197D098E0986
:100700009F09693E73408105910580F3C0E019C0DF
:1007100088EE93E00E942F03C82F8823B9F30E942C
:10072000480128EE33E0F801C080D180E280F380F8
:100730006C197D098E099F096E3071408105910504
:1007400028F28C2FCF911F910F91FF90EF90DF90A7
:10075000CF900895CF92DF92EF92FF920F931F9365
:10076000CF93DF9383EC90E00197F1F710E000E086
:10077000D0E0C0E083ECC82ED12C93E5E92E92E0C6
:10078000F92E61E087E00E94DE0082E390E00E94A3
:10079000990181110BC08FEF9FEFDF91CF911F91D6
:1007A0000F91FF90EF90DF90CF900895C6010197D1
:1007B000F1F783E00E94B500002E02C0880F991F58
:1007C0000A94E2F7C82BD92B60E087E00E94DE0094
:1007D0000E9479018823F9F2C7010197F1F70F5FB1
:1007E0001F4F0830110569F6CE01D7CFCF93DF93A5
:1007F00085EC91E00E94240218161906D4F4C091E9
:10080000C301D091C4018091C1019091C201C81768
:10081000D9077CF485EC91E00E9402029E012F5FD3
:100820003F4F3093C4012093C301CF57DE4F8883DD
:10083000DFCFDF91CF910895CF93DF93C82F0E9430
:10084000F603CC2359F0C8E0D0E08DE790E00E9499
:1008500007032197D1F7DF91CF910895DF91CF91D1
:100860000C941F03CF93DF93EC018731910574F44F
:10087000853191052CF48330910511F0409741F4B6
:1008800060E185EC91E00E94660202C04897C1F3E6
:10089000CE01DF91CF910C94B30266E085EC91E03C
:1008A0000C946602CF93DF93EC0165E185EC91E057
:1008B0000E946602CE01DF91CF910C94B302CF92D9
:1008C000DF92EF92FF920F931F93CF93DF9361E03C
:1008D00085EC91E00E94660288E090E00E94B302FD
:1008E00062E085EC91E00E9466020E9448016B0183
:1008F0007C010BE811E082E00E94B500892BC1F475
:100900000E9448016C197D098E099F096135734C5D
:100910008105910580F363E085EC91E0DF91CF9153
:100920001F910F91FF90EF90DF90CF900C94660293
:1009300061E087E00E94DE0089E00E94B50031E0BE
:1009400020E0892B09F430E0C32FD22F88E00E94E9
:10095000B500892B09F0C26083E00E94B500892BA5
:1009600009F0C46086E00E94B500892B09F0C860D8
:100970000E94790181110CC081E090E0DF91CF915C
:100980001F910F91FF90EF90DF90CF900C94520445
:10099000C8010197F1F760E087E00E94DE0080E186
:1009A00097E20E949901882339F361E087E00E9471
:1009B000DE0089E00E94B500892B09F0C06188E063
:1009C0000E94B500892B09F0C06283E00E94B50047
:1009D000892B09F0C06486E00E94B500892B09F0DC
:1009E000C0680E947901882339F2C8010197F1F7A4
:1009F00060E087E00E94DE000E9448016B017C01FC
:100A0000CE010E94320477CFCF92DF92EF92FF9215
:100A1000CF93DF930E946D016B017C0185EC91E027
:100A20000E9424020297A4F40E946D016C197D09B2
:100A30008E099F09693E73408105910578F38FEF18
:100A40009FEFDF91CF91FF90EF90DF90CF900895CF
:100A500085EC91E00E940202EC0185EC91E00E949D
:100A6000020220E0382FC9018C2B9D2BEACFCF92B8
:100A7000DF92EF92FF920E946D016B017C0185EC89
:100A800091E00E942402892B91F40E946D016C195F
:100A90007D098E099F09693E73408105910578F3B0
:100AA0008FEF9FEFFF90EF90DF90CF90089585EC50
:100AB00091E00E940202F6CFFC018081918197FFB4
:100AC00003C091958195910991958195910908951A
:100AD000CF93DF9300D0CDB7DEB79A83898397FF9A
:100AE00014C0CE0101960E945C0597FF0BC0919542
:100AF000819591090E94520481E00F900F90DF913F
:100B0000CF91089590E080E0F5CF80E0F6CFFC0132
:100B100001900020E9F73197AF01481B590BBC0148
:100B200085EC91E00C94C6010F931F93CF93DF9354
:100B30000E946D0185EC91E00E942402C091C301E6
:100B4000D091C4010091C1011091C201181619067B
:100B500094F4C017D1077CF485EC91E00E94020266
:100B60009E012F5F3F4F3093C4012093C301CF57A5
:100B7000DE4F8883DFCF0C171D0799F520917D018B
:100B800030917E0180917F01909180012817390773
:100B900041F5C0917B01D0917C01C01BD10BD0935A
:100BA0007C01C0937B01A80161E871E08BE391E0D7
:100BB0000E94590B10937E0100937D0110928001D9
:100BC00010927F01C134D10514F0C0E4D0E0D0937D
:100BD000C201C093C1011092C4011092C3010E94CE
:100BE0004D0480917F019091800120917D01309191
:100BF0007E01821793078CF49C012F5F3F4F309347
:100C0000800120937F01855C9E4FFC01808190E0F4
:100C1000DF91CF911F910F91089580917B01909169
:100C20007C01181619060CF485CF81E09FEFF0CFF8
:100C3000CF93DF93CDB7DEB7A1970FB6F894DEBFA1
:100C40000FBECDBF19A281E388A3CE0180960E947A
:100C50008705A1960FB6F894DEBF0FBECDBFDF911A
:100C6000CF9108951F920F920FB60F9211242F93D8
:100C70003F938F939F93AF93BF9380913301909154
:100C80003401A0913501B09136013091320123E059
:100C9000230F2D3758F50196A11DB11D2093320168
:100CA0008093330190933401A0933501B0933601C2
:100CB0008091370190913801A0913901B0913A01AA
:100CC0000196A11DB11D8093370190933801A09327
:100CD0003901B0933A01BF91AF919F918F913F91AC
:100CE0002F910F900FBE0F901F90189526E8230F9D
:100CF0000296A11DB11DD2CF1F920F920FB60F9277
:100D000011242F933F934F935F936F937F938F9310
:100D10009F93AF93BF93EF93FF9385EC91E00E9475
:100D20004402FF91EF91BF91AF919F918F917F917D
:100D30006F915F914F913F912F910F900FBE0F9048
:100D40001F9018951F920F920FB60F9211242F9398
:100D50008F939F93EF93FF93E091D501F091D6018C
:100D60008081E091DB01F091DC0182FD1BC090816C
:100D70008091DE018F5F8F732091DF01821741F038
:100D8000E091DE01F0E0EB53FE4F958F8093DE01A2
:100D9000FF91EF919F918F912F910F900FBE0F9028
:100DA0001F9018958081F4CFCF93DF93CDB7DEB736
:100DB00028970FB6F894DEBF0FBECDBF789484B5E8
:100DC000826084BD84B5816084BD85B5826085BD47
:100DD00085B5816085BD80916E00816080936E00D5
:100DE00010928100809181008260809381008091C7
:100DF0008100816080938100809180008160809378
:100E000080008091B10084608093B1008091B00037
:100E100081608093B00080917A00846080937A0032
:100E200080917A00826080937A0080917A0081605C
:100E300080937A0080917A00806880937A00109283
:100E4000C100E091D501F091D60182E08083E0916C
:100E5000D101F091D2011082E091D301F091D4013F
:100E600080E180831092DD01E091D901F091DA01F7
:100E700086E08083E091D701F091D8018081806184
:100E80008083E091D701F091D801808188608083D0
:100E9000E091D701F091D801808180688083E09152
:100EA000D701F091D80180818F7D808361E087E058
:100EB0000E940C0160E085E00E940C0160E083E08C
:100EC0000E940C0160E082E00E940C0161E084E07D
:100ED0000E940C0160E086E00E940C0160E088E066
:100EE0000E940C0160E089E00E940C0161E08DE04D
:100EF0000E940C0162E08EE00E940C01812C912C7A
:100F000054018394B3EC6B2E712C85EC91E00E941C
:100F10002402892B41F185EC91E00E94020266E1F6
:100F20008631910509F410C10197E9F40E94370553
:100F300098878F8397FF0AC0CE0107960E945C05B1
:100F400097FF69C2919581959109D4C18630910529
:100F500009F4FFC00CF0BCC08130910509F4CBC08E
:100F6000029709F4C5C085E00E94B5008C01892B69
:100F700059F10E94AA037C0197FD26C00F970297A2
:100F800028F0C7018B7F81349105F1F461E087E09F
:100F90000E94DE008BE99CE80197F1F760E087E0B2
:100FA0000E94DE0061E085EC91E00E94660283E031
:100FB00090E00E94B302C7010E94B30281E4E816E8
:100FC000F10411F40E945F0482E00E94B500892BB5
:100FD00009F448C00115110509F044C0D12CC12CF9
:100FE00080E197E20E949901882309F43BC0C30184
:100FF0000197F1F783E00E94B5007C0161E087E092
:101000000E94DE000E947901882361F1C3010197EB
:10101000F1F760E087E00E94DE000C2C02C0EE0CCD
:10102000FF1C0A94E2F70E291F292FEFC21AD20AD9
:1010300048E0C416D104A1F60033110509F4EDC24D
:10104000003F110509F4ECC217FD0CC061E085EC0E
:1010500091E00E94660284E090E00E94B302C80121
:101060000E94B3020E946D0100912E0110912F0188
:1010700020913001309131016B017C01C01AD10AFD
:10108000E20AF30A97018601083E13402105310563
:1010900090F060932E0170932F0180933001909314
:1010A00031018DE00E94B50061E0892B09F060E01C
:1010B0008DE00E94DE0080E090E0892B09F425CFCE
:1010C0000E943002882309F420CF0E9400001ACF2A
:1010D0008730910509F4EFC0089709F044CF0E94CA
:1010E00037059E838D8397FF99C1CE01059626CF44
:1010F0000E944D0438CF61E085EC91E00E946602C9
:1011000061E085EC91E00E94660261E085EC91E08F
:101110000E94660280E490E00E94B30262E085ECE7
:1011200091E00E94660282E191E00E9487050E94A0
:10113000180688E291E00E9487050E9418068AE25C
:1011400091E00E94870563E085EC91E00E946602D1
:101150000ACF0E9404058C010E946805811103CF0B
:10116000902F812F17FF02C090E080E010927E0147
:1011700010927D011092800110927F0130E420E0F6
:10118000013411050CF49C013093C1012093C2017C
:101190001092C4011092C30190937B0180937C0153
:1011A0000E9437057C010E946805D82E8111DBCE94
:1011B0008701F7FE02C010E000E00E944D040E948B
:1011C00094057C0181302FEF920759F481E00E9451
:1011D0001C0481E00E941C0460E08DE00E94DE009F
:1011E000C2CE0E9468058111BECEDD2009F454C034
:1011F000F7FE02C0F12CE12C0E94F6030E941F03AF
:10120000A4E0CA2ED12C27015524C2010C2C02C007
:10121000959587950A94E2F781700E941C048FEFE0
:10122000C81AD80A28E0C216D10479F781E00E94D2
:101230001C040E94F6030E941F03F12CE12CC20142
:101240000E2C02C0959587950A94E2F781700E9452
:101250001C044FEFE41AF40A84E0E816F10479F76D
:10126000E5E0CE2ED12C0115110519F472E0C72E40
:10127000D12CF12CE12C81E00E941C042FEFE21A0A
:10128000F20ACE14DF04B9F70115110511F001506F
:101290001109DD24D39493CF61E08DE00E94DE003C
:1012A000FAEFCF2ED12C81E00E941C0441E0C41A39
:1012B000D108C9F79DCF0E944D0485E00E94B5007A
:1012C000892B09F0B0C185EC91E00E942402892BA2
:1012D000A1F385EC91E00E9402028831910511F0A2
:1012E0004B9759F782E090E005C0409709F49FC101
:1012F00083E090E00E94520436CE69817A818B812E
:101300009C810E94D80281113BC010E000E064E0A3
:10131000E62EF12C0E9448010E94D802B501A401DA
:101320000E2C04C0440F551F661F771F0A94D2F776
:10133000882309F43EC0042B152B4FEFE41AF40A5E
:1013400088E0E816F10431F70E9448010E94D802B3
:10135000811134C00BEF1FEFC8010E946805811195
:1013600002CEC11005C062E085EC91E00E946602E9
:10137000C80117FF02C090E080E00E943204CD2C2B
:101380000E9448011B012C01CE0101960E945C03C2
:10139000182F0E94480162197309840995091123C5
:1013A00009F451C1613177428105910508F4A5CF57
:1013B000CACE4095509504231523BFCF0E94480103
:1013C0000E94D8028111C6CFF12CE12C0E94480165
:1013D0000E94D802B501A4010E2C04C0440F551F71
:1013E000661F771F0A94D2F7882381F0042B152BF0
:1013F0002FEFE21AF20A44E0E416F10439F70E94F2
:1014000048010E94D8028111A7CFA4CF40955095E2
:1014100004231523EDCF90E080E06CCF0E940405FB
:101420009A83898397FF17C0CE0101960E945C05BD
:1014300097FF0EC09195819591090E9452048D816C
:101440009E818F3F910509F08ECD0E945F048BCD68
:1014500090E080E0F2CF0E944D0489819A81382F7C
:10146000292F97FF02C030E020E010927E011092F9
:101470007D011092800110927F01813491050CF45E
:10148000C7C090E480E09093C1018093C2011092A4
:10149000C4011092C30130937B0120937C010E9410
:1014A00094058C0181304FEF940749F20E94680542
:1014B0008111C5CF17FF02C010E000E0F02E60E000
:1014C00089E00E94DE0060E088E00E94DE0060E0CB
:1014D00083E00E94DE0060E086E00E94DE0060E0C3
:1014E00087E00E94DE0083E290E00197F1F761E07F
:1014F00089E00E940C0161E088E00E940C0161E03B
:1015000083E00E940C0161E086E00E940C01602FE4
:10151000617089E00E94DE00B80175956795617081
:1015200088E00E94DE00B80175956795759567950E
:10153000617083E00E94DE00B80153E07595679505
:101540005A95E1F7617086E00E94DE0061E087E075
:101550000E94DE0080E197E20E949901882309F44D
:1015600059C060E087E00E94DE00C3010197F1F7F7
:101570000E947901882309F44DC0B80184E0759573
:1015800067958A95E1F7617089E00E94DE00B801F5
:1015900095E0759567959A95E1F7617088E00E94EE
:1015A000DE0026E0159507952A95E1F7602F61701A
:1015B00083E00E94DE006F2D661F6627661F86E0AF
:1015C0000E94DE0061E087E00E94DE0080E197E299
:1015D0000E9499018823F1F060E087E00E94DE001C
:1015E000C3010197F1F70E947901882399F060E027
:1015F00089E00E940C0160E088E00E940C0160E03C
:1016000083E00E940C0160E086E00E940C0147CF5D
:10161000C90139CF81E090E010CF0FE410E016CD82
:1016200000E310E013CD0E94AA0397FF5ECE19825B
:101630001A821B821C82CE0101960E945C03D82E66
:10164000C12C81115ACE81E090E054CEE5ECF1E05E
:101650001382128288EE93E0A0E0B0E08483958349
:10166000A683B78384E091E09183808385EC90E04A
:101670009587848784EC90E09787868780EC90E05C
:10168000918B808B81EC90E0938B828B82EC90E04D
:10169000958B848B86EC90E0978B868B118E128EC7
:1016A000138E148E0895EE0FFF1F0590F491E02D18
:1016B0000994FB01DC0102C001900D9241505040A1
:0816C000D8F70895F894FFCF5C
:1016C800000000006602C601F301B802240202020B
:1016D8001602536861727020416E6475696E6F20DE
:0E16E80044726976657220002E000D0A000023
:00000001FF
